:020000040800F2
:10000000980E00202D020008A91F000829190008D9
:10001000A51F0008AB0400085921000800000000DB
:10002000000000000000000000000000AF1F0008FA
:10003000AF04000800000000AD1F0008B11F000859
:10004000470200084702000847020008470200086C
:10005000470200084702000847020008470200085C
:10006000470200084702000847020008470200084C
:10007000470200084702000847020008470200083C
:10008000470200084702000847020008470200082C
:10009000470200084702000847020008470200081C
:1000A000470200084702000847020008470200080C
:1000B00047020008470200084702000847020008FC
:1000C00047020008470200084702000847020008EC
:1000D00047020008470200084702000847020008DC
:1000E00047020008470200084702000847020008CC
:1000F00047020008470200084702000847020008BC
:1001000047020008470200084702000847020008AB
:10011000470200084702000847020008470200089B
:10012000470200084702000847020008470200088B
:10013000470200084702000847020008470200087B
:10014000470200084702000847020008470200086B
:10015000470200084702000847020008470200085B
:10016000470200084702000847020008470200084B
:10017000470200084702000847020008000000008C
:10018000470200084702000800F002F800F03EF8BD
:100190000AA090E8000C82448344AAF10107DA45E2
:1001A00001D100F033F8AFF2090EBAE80F0013F0F6
:1001B000010F18BFFB1A43F001031847B4330000C6
:1001C000D4330000103A24BF78C878C1FAD8520757
:1001D00024BF30C830C144BF04680C6070470000C1
:1001E0000023002400250026103A28BF78C1FBD840
:1001F000520728BF30C148BF0B6070471FB503F0DE
:100200007BF900F007F91FBD10B510BD00F014F91F
:100210001146FFF7F3FF02F0ADFF00F032F903B42F
:10022000FFF7F2FF03BC00F039F9000009488047EE
:1002300009480047FEE7FEE7FEE7FEE7FEE7FEE7C8
:10024000FEE7FEE7FEE7FEE704480549054A064BE0
:1002500070470000B91F00088901000898080020B5
:10026000980E0020980A0020980A002053EA020CF9
:1002700000F069802DE9F04B4FF00006002B1FBF06
:10028000B3FA83F503FA05F424FA05F65E4012BFCB
:100290001643B2FA82F502FA05F4C5F120051EBF35
:1002A00022FA05FC44EA0C04203556EA044C4FEAD5
:1002B000144418BF641C4FF000084FF0000990422E
:1002C00071EB030C39D3002919BFB1FA81F701FA98
:1002D00007F6B0FA80F700FA07F6C7F120071EBF4D
:1002E00020FA07FC46EA0C062037B6FBF4FCA7EB25
:1002F0000507103F07F01F0BCBF120060CFA0BFB94
:100300002CFA06F644BFB3460026202FA4BF5E4653
:100310004FF0000B5BEA060C08BF4FF0010B19EB26
:100320000B09ABFB027C48EB0608C01B06FB02CCAA
:100330000BFB03CC71EB0C01C1E70B4602464146B7
:100340004846BDE8F08B13B54FF000004FF00001B8
:10035000AFF30080BDE81C40704710B5203AC0F0F4
:100360000B80B1E81850203AA0E81850B1E81850B6
:10037000A0E81850BFF4F5AF5FEA027C24BFB1E8F3
:100380001850A0E8185044BF18C918C0BDE8104064
:100390005FEA827C24BF51F8043B40F8043B08BF6D
:1003A0007047D20728BF31F8023B48BF11F8012B34
:1003B00028BF20F8023B48BF00F8012B70474FF0E0
:1003C000000200B5134694469646203922BFA0E8A5
:1003D0000C50A0E80C50B1F12001BFF4F7AF0907B1
:1003E00028BFA0E80C5048BF0CC05DF804EB8900A2
:1003F00028BF40F8042B08BF704748BF20F8022BE5
:1004000011F0804F18BF00F8012B704770477047FC
:100410007047000070B5064C7C44064D7D4403E0F7
:10042000206820448047241DAC42F9D170BD0000F3
:100430007431000074310000754600F02BF8AE46B0
:1004400005006946534620F00700854618B020B5E0
:10045000FFF7FAFEBDE820404FF000064FF000071E
:100460004FF000084FF0000B21F00701AC46ACE85C
:10047000C009ACE8C009ACE8C009ACE8C0098D46C9
:10048000704710B50446AFF300802046BDE8104029
:10049000FFF7C5BE00487047380800200149182002
:1004A000ABBEFEE726000200704700BFFEE77047C4
:1004B00072B600BFFEE7000070B5044600F010F908
:1004C00006462546681C10B104480078054400BF64
:1004D00000F006F9801BA842FAD370BD0800002086
:1004E000F8B502460B460025002400200021D6E086
:1004F000012606FA01F51E6806EA0504AC4274D12D
:100500001E7906F00306012E04D01E7906F00306BC
:10051000022E13D190684F000326BE40B0434F0017
:10052000DE68BE4030439060506801268E40B04384
:100530001E79C6F300168E40304350601E7906F0D7
:100540000306032E09D0D0684F000326BE40B043F7
:100550004F009E68BE403043D0601E7906F003060F
:10056000022E13D1CF0802F1200656F827004E07BD
:10057000F70E0F26BE40B0434F07FF0E1E69BE4068
:100580003043CF0802F1200646F8270010684F00DC
:100590000326BE40B0431E7906F003064F00BE405E
:1005A000304310605E6806F44036002E76D000BFFF
:1005B000002600963C4E366846F480463A4F3E6030
:1005C0003E46366806F48046009600BF00BF374EB0
:1005D0008F0856F827008E07370F0F26BE40B0430E
:1005E000334EB24202D1002624E057E0314EB242EF
:1005F00001D101261EE0304EB24201D1022619E09F
:100600002E4EB24201D1032614E02D4EB24201D14A
:1006100004260FE02B4EB24201D105260AE02A4EF5
:10062000B24201D1062605E0284EB24201D107268A
:1006300000E008268F073F0FBE4030431B4E8F0857
:1006400046F82700224E3068A0435E6806F4801604
:1006500006B120431E4E3060361D3068A0435E68F0
:1006600006F4001606B12043194E361D3060184EB0
:10067000361F3068A0435E6806F4003606B120439A
:10068000134E361F3060361F3068A0435E6806F494
:10069000803606B120430E4E083E3060491C1029BA
:1006A000FFF426AFF8BD000044380240083801408E
:1006B000000002400004024000080240000C02401A
:1006C000001002400014024000180240001C0240CA
:1006D000083C01400AB1816101E00B04836170476D
:1006E00001480068704700000000002003480068CF
:1006F0000349097808440149086070470000002058
:100700000800002010B50D48006840F400700B4947
:1007100008600846006840F4806008600846006889
:1007200040F480700860032000F092F80F2000F081
:1007300007F800F02BF8002010BD0000003C02403C
:1007400070B504460E4800784FF47A71B1FBF0F0B2
:100750000C490968B1FBF0F5284600F0F5FB08B13B
:10076000012070BD102C07D200222146501E00F03F
:1007700031F80548046001E00120F2E70020F0E7CD
:10078000080000200C0000200400002008B500BF75
:10079000002000900E48006840F480400C4908603A
:1007A0000846006800F48040009000BF00BF00BF12
:1007B00000200090081F006840F08050091F08606A
:1007C0000846006800F08050009000BF00BF08BDE0
:1007D000443802402DE9F05F80460D46164600275A
:1007E00002F036FB074639462A46334601F0070039
:1007F000C0F1070ABAF1040F02D94FF0040A01E070
:10080000C0F1070AD14600F1040ABAF1070F02D27B
:100810004FF0000A01E0A0F1030AD4464FF0010AAC
:100820000AFA09FAAAF1010A0AEA020A0AFA0CFA11
:100830004FF0010B0BFA0CFBABF1010B0BEA030BB6
:100840004AEA0B042146404602F0EEFABDE8F09F6A
:1008500000BF00F00702064B19684FF6FF0319406E
:10086000044B0B4343EA0221014B196000BF704760
:100870000CED00E00000FA0570B504460D460CB919
:10088000012070BD5848006800F00700A84209D256
:1008900055490D700846006800F00700A84201D0D5
:1008A0000120EEE7207800F0020002281DD1207818
:1008B00000F00400042805D14C48006840F4E050E2
:1008C0004A490860207800F00800082805D1474808
:1008D000006840F46040454908604448006820F0E2
:1008E000F000A168084341490860207800F0010049
:1008F000A8B36068012807D13C4808380068C0F3F5
:100900004040B8B90120BCE76068022802D06068A6
:10091000032807D1354808380068C0F3406048B95B
:100920000120AEE7314808380068C0F3400008B93C
:100930000120A6E72D48006820F003006168084305
:100940002A490860FFF7CCFE064609E0FFF7C8FE1B
:10095000801B41F28831884202D9032091E707E0E9
:100960002248006800F00C006168B0EB810FEDD107
:100970001D48006800F00700A84209D91A490D7007
:100980000846006800F00700A84201D0012078E77F
:10099000207800F00400042807D11448006820F4EF
:1009A000E050E168084311490860207800F0080031
:1009B000082808D10D48006820F46040216940EA09
:1009C000C1000A49086000F019F808490968C1F334
:1009D0000311074A515CC840064908600648006890
:1009E000FFF7AEFE00204CE7003C02400838024012
:1009F000583500080C000020040000202DE9F047C5
:100A0000002400250026A1462548006800F00C00BF
:100A100020B1042805D008283AD105E0DFF88490F9
:100A200039E0DFF8849036E01D48001F006800F0D0
:100A30003F041B48001F006800F4800078B11A488A
:100A40001749091F0968C1F38811A0FB017001460D
:100A5000224600233846FFF709FC05460EE0114800
:100A60000F49091F0968C1F38811A0FB01700146F5
:100A7000224600233846FFF7F9FB05460848001FC9
:100A80000068C0F30140401C4600B5FBF6F902E0E7
:100A9000DFF8109000BF00BF4846BDE8F0870000B7
:100AA000083802400024F40000127A00F8B5044629
:100AB0000CB90120F8BD207800F00100002874D0A6
:100AC000F948006800F00C0004280DD0F6480068D2
:100AD00000F00C00082813D1F348001F006800F450
:100AE0008000B0F5800F0BD1EF4808380068C0F3E4
:100AF0004040002859D06068002856D10120D9E72D
:100B000000BF6068B0F5803F08D1E748083800684A
:100B100040F48030E449083908601EE06068B0F5B0
:100B2000A02F0DD1E0480838006840F48020DE494D
:100B3000083908600846006840F4803008600CE01E
:100B4000D9480838006820F48030D749083908604F
:100B50000846006820F48020086000BF606890B1FB
:100B6000FFF7BEFD054606E0FFF7BAFD401B64280F
:100B700001D903209EE7CC4808380068C0F3404004
:100B80000028F1D011E0FFF7ABFD054606E0FFF7C6
:100B9000A7FD401B642801D903208BE7C248083811
:100BA0000068C0F340400028F1D1207800F0020036
:100BB00002285FD1BC48006800F00C0058B1BA4868
:100BC000006800F00C0008281CD1B748001F00681E
:100BD00000F48000B0B9B44808380068C0F34000A1
:100BE00020B1E068012801D0012063E7AE48083851
:100BF000006820F0F800216940EAC100AA490839DC
:100C0000086037E0E06800B30120A8490860FFF7FA
:100C100067FD054606E0FFF763FD401B022801D98A
:100C2000032047E7A04808380068C0F340000028C8
:100C3000F1D09D480838006820F0F800216940EAAA
:100C4000C10099490839086014E0002097490860FC
:100C5000FFF746FD054606E0FFF742FD401B022870
:100C600001D9032026E7904808380068C0F3400007
:100C70000028F1D1207800F0080008282CD1606904
:100C8000A8B101208A490860FFF72AFD054606E061
:100C9000FFF726FD401B022801D903200AE78248FE
:100CA0006C300068C0F340000028F1D014E0002050
:100CB0007F490860FFF714FD054606E0FFF710FDC9
:100CC000401B022801D90320F4E677486C30006805
:100CD000C0F340000028F1D1207800F0040004287F
:100CE00070D1002770483830006800F0805090B90B
:100CF00000BF002000906C483830006840F0805001
:100D00006949383108600846006800F0805000905A
:100D100000BF00BF01276748006800F48070B0B9C9
:100D20006448006840F4807062490860FFF7D8FCAE
:100D3000054606E0FFF7D4FC401B022801D903203A
:100D4000B8E65C48006800F480700028F2D000BF6C
:100D5000A068012808D154486830006840F00100BC
:100D60005149683108601DE0A06805280DD14E4842
:100D70006830006840F004004B496831086008465C
:100D8000006840F0010008600CE0474868300068E7
:100D900020F001004449683108600846006820F0EE
:100DA0000400086000BFA068A8B1FFF799FC0546E1
:100DB00009E0FFF795FC401B41F28831884202D9D7
:100DC000032077E626E0384868300068C0F340002A
:100DD0000028EED013E0FFF783FC054608E0FFF79C
:100DE0007FFC401B41F28831884201D9032061E633
:100DF0002D4868300068C0F340000028EFD1012F73
:100E000007D129483830006820F080502649383111
:100E1000086000BFA069002845D02348006800F0A2
:100E20000C0008285DD0A069022845D100201F4988
:100E30000866FFF755FC054606E0FFF751FC401B2E
:100E4000022801D9032035E6174808380068C0F3A6
:100E500040600028F1D1D4E907010843616A40EA03
:100E600081110122A06AC2EB500041EA00412C200E
:100E7000005D41EA00600C49091F086001200B4930
:100E80000866FFF72DFC054606E0FFF729FC401B2E
:100E9000022801D903200DE6034808380068C0F392
:100EA00040600028F1D049E0083802400000474285
:100EB000800E474200700040002021490866FFF77D
:100EC0000FFC054606E0FFF70BFC401B022801D98A
:100ED0000320EFE51B480068C0F340600028F2D112
:100EE0002CE0A069012800D1E4E51648001D066841
:100EF000A069012820D006F48001E06981421BD15D
:100F000006F03F01206A814216D147F6C07030409A
:100F1000616AB0EB811F0FD106F440310122A06A53
:100F2000C2EB5000B1EB004F06D106F070612C20EF
:100F3000005DB1EB006F01D00120BBE50020B9E5F9
:100F4000000047420038024070B504462546681E3E
:100F5000B0F1807F01D301200FE0681E4FF0E02147
:100F600048610F214FF0FF3001F05EFF00204FF08D
:100F7000E021886107200861002070BD10B503469C
:100F8000002200BF93F83C00012801D1022010BDCF
:100F9000012083F83C0000BF22F0FF00CC6840EA4B
:100FA000040222F440708C6840EA040222F480605B
:100FB0004C6840EA040222F400600C6840EA040233
:100FC00022F480500C6940EA040222F400504C697B
:100FD00040EA040222F48040CC6940EA0402186826
:100FE000426400BF002083F83C0000BF00BFCEE792
:100FF00030B502460B4600BF92F83C00012801D1F3
:10100000022030BD012082F83C0000BF022082F89F
:101010003D00106844681068816824F07004186806
:10102000044310684460184D1068A8421BD0106833
:10103000B0F1804F17D0154D1068A84213D0144D51
:101040001068A8420FD0134D1068A8420BD0124D63
:101050001068A84207D0114D1068A84203D0104D67
:101060001068A84205D121F080015868014310683A
:101070008160012082F83D0000BF002082F83C0022
:1010800000BF00BFBDE700000000014000040040B9
:1010900000080040000C00400004014000400140F6
:1010A0000018004010B504460CB9012010BD94F89A
:1010B0003D0028B9002084F83C00204600F026F8C6
:1010C000022084F83D00211D206800F07FFF0120F0
:1010D00084F8460000BF84F83E0001213F200155FE
:1010E000402001554120015500BF00BF012084F878
:1010F000420043200155442001554520015500BFC1
:10110000012084F83D000020D0E7000008B5354AF2
:10111000016891420FD100BF002100913249096856
:1011200041F00101304A11601146096801F00101E6
:10113000009100BF55E00168B1F1804F11D100BFAF
:10114000002100912849091F096841F00101264A40
:10115000121F11601146096801F00101009100BFE2
:101160003FE0224A0168914211D100BF0021009165
:101170001D49091F096841F002011B4A121F116035
:101180001146096801F00201009100BF29E0184AE8
:101190000168914211D100BF002100911249091F3D
:1011A000096841F00401104A121F116011460968D4
:1011B00001F00401009100BF13E00E4A0168914262
:1011C0000FD100BF002100910749096841F4803127
:1011D000054A11601146096801F48031009100BF91
:1011E00000BF08BD00000140443802400004004038
:1011F0000008004000400140014691F83D000128F0
:1012000001D001207047022081F83D000868C068C5
:1012100040F001000B68D8601A4B086898421BD058
:101220000868B0F1804F17D0174B0868984213D068
:10123000164B086898420FD0154B086898420BD09F
:10124000144B0868984207D0134B0868984203D0A3
:10125000124B086898420CD10868806800F00702B9
:10126000062A0CD00868006840F001000B6818607E
:1012700005E00868006840F001000B681860002075
:10128000C0E70000000001400004004000080040EA
:10129000000C0040000401400040014000180040E4
:1012A0002DE9F04104460D46002700BF94F83C00AC
:1012B000012802D10220BDE8F081012084F83C0021
:1012C00000BF022084F83D002068866826F077067B
:1012D00026F47F46206886602868502833D00CDCCE
:1012E000202850D004DC00284BD0102851D149E0F0
:1012F000302849D040284CD139E060282DD07028C2
:1013000007D0B0F5805F03D0B0F5005F41D10DE0AC
:1013100041E0D5E902136A68206800F0D4FE206835
:10132000866846F077062068866034E0D5E90213C7
:101330006A68206800F0C7FE2068806840F480403A
:101340002168886027E0EA686968206801F045FD47
:101350005021206801F038FD1DE0EA6869682068C6
:1013600001F04EFD6021206801F02EFD13E0EA68D7
:101370006968206801F031FD4021206801F024FDFA
:1013800009E000BF00BF00BF2968206801F01CFD14
:1013900001E0012700BF00BF012084F83D0000BF2D
:1013A000002084F83C0000BF384684E710B586B0C2
:1013B0000446142101A8FFF702F864492068884216
:1013C0001ED100BF002000906148006840F010006E
:1013D0005F4908600846006800F01000009000BFF8
:1013E00000BF4FF420600190022002900020039083
:1013F00004900120059001A95648FFF771F8A3E079
:101400002068B0F1804F1DD100BF002000905048EF
:10141000006840F001004E4908600846006800F08E
:101420000100009000BF00BF062001900220029042
:101430000020039004900120059001A94648FFF781
:101440004FF881E045492068884239D100BF00202B
:1014500000903F48006840F001003D4908600846A0
:10146000006800F00100009000BF00BF00BF002036
:1014700000900846006840F00200086008460068D6
:1014800000F00200009000BF00BFC02001900220C9
:1014900002900020039004900220059001A92E489C
:1014A000FFF71EF803200190022002900020039015
:1014B00004900220059001A92948FFF711F843E0A4
:1014C0002849206888421ED100BF00200090204893
:1014D000006840F008001E4908600846006800F0F7
:1014E0000800009000BF00BF4FF470400190022040
:1014F00002900020039004900220059001A91A4850
:10150000FEF7EEFF20E01949206888421CD100BF99
:10151000002000900E48006840F010000C49086060
:101520000846006800F01000009000BF00BF2020B7
:101530000190022002900020039004900320059067
:1015400001A90448FEF7CCFF06B010BD0000014021
:101550003038024000100240000002400004004009
:101560000004024000080040000C0240004001401E
:101570002DE9F04104460E461546002700BF94F8B9
:101580003C00012802D10220BDE8F081012084F84E
:101590003C0000BF35B1042D09D0082D0CD00C2D16
:1015A00014D10EE03146206801F070FB10E03146A6
:1015B000206800F093FD0BE03146206801F09EFBAF
:1015C00006E03146206801F0D5FB01E0012700BFAD
:1015D00000BF00BF002084F83C0000BF3846D3E7BE
:1015E00010B504460CB9012010BD94F83D0028B98F
:1015F000002084F83C00204600F025F8022084F802
:101600003D00211D206800F0E1FC012084F8460027
:1016100000BF84F83E0001213F20015540200155C4
:101620004120015500BF00BF012084F84200432043
:101630000155442001554520015500BF012084F883
:101640003D000020D0E7704770B504460D460CB948
:10165000012070BD94F83D0028B9002084F83C00BA
:10166000204600F024F8022084F83D00211D206867
:1016700000F0ACFC2068006820F0080021680860D9
:1016800020680068284321680860012084F846002B
:1016900084F83E0001213F200155012084F84200DA
:1016A00043200155012084F83D000020D1E7704718
:1016B0002DE9F04104460D461646002700BF94F878
:1016C0003C00012802D10220BDE8F081012084F80D
:1016D0003C0000BF36B1042E1BD0082E31D00C2E9A
:1016E0005ED145E02946206801F0D0FA2068806983
:1016F00040F00800216888612068806920F00400BB
:1017000021688861206880692969084321688861A7
:1017100048E02946206800F0E1FC2068806940F438
:101720000060216888612068806920F480602168F9
:10173000886120688069296940EA01202168886100
:1017400030E02946206801F0D9FA2068C06940F0ED
:1017500008002168C8612068C06920F00400216881
:10176000C8612068C069296908432168C86119E017
:101770002946206801F0FEFA2068C06940F4006044
:101780002168C8612068C06920F480602168C86150
:101790002068C069296940EA01202168C86101E028
:1017A000012700BF00BF00BF002084F83C0000BF3D
:1017B000384689E710B504460CB9012010BD94F8ED
:1017C0003D0028B9002084F83C00204600F025F8B0
:1017D000022084F83D00211D206800F0F7FB012065
:1017E00084F8460000BF84F83E0001213F200155E7
:1017F000402001554120015500BF00BF012084F861
:10180000420043200155442001554520015500BFA9
:10181000012084F83D000020D0E7704770B50446F1
:101820000D4615B994F83E000BE0042D02D13F207F
:10183000005D06E0082D02D14020005D01E041205E
:10184000005D012801D0012070BD1DB9022084F87F
:101850003E000EE0042D03D102213F20015508E097
:10186000082D03D102214020015502E00221412030
:10187000015501222946206800F014FC2349206804
:10188000884203D022492068884201D1012000E02B
:10189000002028B12068406C40F400402168486472
:1018A0001A49206888421BD02068B0F1804F17D0B9
:1018B00018492068884213D01749206888420FD001
:1018C0001649206888420BD011492068884207D009
:1018D00013492068884203D01249206888420CD1FD
:1018E0002068806800F00706062E0CD0206800688B
:1018F00040F001002168086005E02068006840F0C1
:1019000001002168086000209EE7000000000140FF
:10191000000401400004004000080040000C0040AA
:10192000004001400018004000BFFEE700B587B04E
:10193000142102A8FEF743FD00BF002001909B4840
:10194000006840F01000994908600846006800F0FF
:101950001000019000BF00BF00BF002001900846AA
:10196000006840F0200008600846006800F0200091
:10197000019000BF00BF00BF002001900846006832
:1019800040F0800008600846006800F08000019088
:1019900000BF00BF00BF002001900846006840F073
:1019A000040008600846006800F00400019000BFD1
:1019B00000BF00BF002001900846006840F0010011
:1019C00008600846006800F00100019000BF00BFF9
:1019D00000BF002001900846006840F00200086047
:1019E0000846006800F00200019000BF00BF00BF81
:1019F000002001900846006840F008000860084692
:101A0000006800F00800019000BF00BF00223021F4
:101A10006748FEF75FFE00220C216648FEF75AFE7B
:101A2000002218216448FEF755FE00224FF482413F
:101A30006248FEF74FFE00224FF440516048FEF727
:101A400049FE00224FF420615E48FEF743FE30203D
:101A500002900120039000200490059002A95448B0
:101A6000FEF73EFDC02002904FF488100390002046
:101A7000049002A94E48FEF733FD4FF41060029027
:101A800000200390049002A94948FEF729FD0C208C
:101A900002900120039000200490059002A945487F
:101AA000FEF71EFD182002900120039000200490F4
:101AB000059002A94048FEF713FD20200290002067
:101AC0000390049002A93C48FEF70AFD1020029002
:101AD0004FF4881003900020049002A93548FEF7C7
:101AE000FFFC2020029000200390049002A93148BE
:101AF000FEF7F6FC042002904FF4881003900020BB
:101B0000049002A92E48FEF7EBFC802002900020F2
:101B10000390049002A92948FEF7E2FC4FF48240AA
:101B200002900120039000200490059002A9234810
:101B3000FEF7D6FC4FF4004002904FF4881003905B
:101B40000020049002A91D48FEF7CAFC4FF4405043
:101B500002900120039000200490059002A91848EB
:101B6000FEF7BEFC4FF480700290002003900490BA
:101B700002A91448FEF7B4FC4FF420600290012043
:101B8000039000200490059002A90E48FEF7A8FCDF
:101B90004FF4806002904FF488100390002004906E
:101BA00002A90848FEF79CFC07B000BD303802408F
:101BB00000140240000802400000024000100240F1
:101BC00000040240000C024000B595B000201190C6
:101BD0001290139014900F9010901C2108A8FEF7FB
:101BE000EEFB20216846FEF7EAFB2F482F490860EC
:101BF00040F24730486000212C48816040F2CF71AC
:101C0000C1600021016141618161FFF74BFA08B1B8
:101C1000FEF74EFC4FF48050119011A92348FFF7B6
:101C20003FFB08B1FEF744FC2048FFF7D9FC08B1A0
:101C3000FEF73EFC00200F9010900FA91B48FFF705
:101C4000D7F908B1FEF734FC0020089009900A90FB
:101C50000B900C900D900E90002208A91348FFF7EE
:101C600087FC08B1FEF724FC042208A90F48FFF7FF
:101C70007FFC08B1FEF71CFC002000900190029050
:101C8000039004904FF4005005900020079069469F
:101C90000648FFF773F908B1FEF70AFC0348FFF79F
:101CA00085FB15B000BD000000000140D0060020FB
:101CB00000B58DB0002009900A900B900C90079011
:101CC00008901C216846FEF77AFB4FF080402349BC
:101CD0000860D120486000212048816040F2E7314F
:101CE000C160002101618161FFF7DCF908B1FEF7F5
:101CF000DFFB4FF48050099009A91848FFF7D0FA8C
:101D000008B1FEF7D5FB1548FFF754FD08B1FEF703
:101D1000CFFB00200790089007A91048FFF768F94B
:101D200008B1FEF7C5FB60200090002001900290F2
:101D30000490042269460948FFF7BAFC08B1FEF78F
:101D4000B7FB082269460548FFF7B2FC08B1FEF769
:101D5000AFFB0248FFF72AFB0DB000BD18070020BB
:101D600000B58DB0002009900A900B900C90079060
:101D700008901C216846FEF722FB2C482C4908607D
:101D800040F24730486000212948816040F2CF711D
:101D9000C160002101618161FFF784F908B1FEF79C
:101DA00087FB4FF48050099009A92148FFF778FA82
:101DB00008B1FEF77DFB1E48FFF7FCFC08B1FEF7FB
:101DC00077FB00200790089007A91948FFF710F942
:101DD00008B1FEF76DFB602000900020019002909A
:101DE0000490002269461248FFF762FC08B1FEF732
:101DF0005FFB042269460E48FFF75AFC08B1FEF764
:101E000057FB082269460A48FFF752FC08B1FEF763
:101E10004FFB0C2269460648FFF74AFC08B1FEF763
:101E200047FB0348FFF7C2FA0DB000BD00040040B5
:101E30006007002000B58DB0002009900A900B903B
:101E40000C90079008901C216846FEF7B8FA2C48C1
:101E50002C490860D120486000212A48816040F266
:101E6000E731C160002101618161FFF71BF908B111
:101E7000FEF71EFB4FF48050099009A92148FFF797
:101E80000FFA08B1FEF714FB1E48FFF793FC08B1E8
:101E9000FEF70EFB00200790089007A91948FFF7EE
:101EA000A7F808B1FEF704FB602000900020019025
:101EB00002900490002269461248FFF7F9FB08B12E
:101EC000FEF7F6FA042269460E48FFF7F1FB08B167
:101ED000FEF7EEFA082269460A48FFF7E9FB08B167
:101EE000FEF7E6FA0C2269460648FFF7E1FB08B167
:101EF000FEF7DEFA0348FFF759FA0DB000BD000007
:101F000000080040A807002000B58BB00020079013
:101F1000089009900A901C216846FEF750FA1F4865
:101F20001F4908605320486000211D48816040F22D
:101F3000F311C160002101618161FFF7B3F808B1BD
:101F4000FEF7B6FA4FF48050079007A91448FFF740
:101F5000A7F908B1FEF7ACFA1148FFF72BFC08B15E
:101F6000FEF7A6FA08210E48FFF76EFB08B1FEF750
:101F70009FFA602000900020019002200290002033
:101F80000490002269460648FFF792FB08B1FEF76D
:101F90008FFA0348FFF70AFA0BB000BD004001407A
:101FA000F007002000BFFEE700BFFEE77047704764
:101FB00010B5FEF79BFB10BD0348006840F47000AD
:101FC000014908607047000088ED00E010B5026824
:101FD000294B98420ED0B0F1804F0BD0274B98423E
:101FE00008D0274B984205D0264B984202D0264B6A
:101FF000984203D122F070024B681A431E4B98425C
:1020000020D0B0F1804F1DD01C4B98421AD01C4BF1
:10201000984217D01B4B984214D01B4B984211D0BA
:102020001A4B98420ED01A4B98420BD0194B98423B
:1020300008D0194B984205D0184B984202D0184B43
:10204000984203D122F44072CB681A4322F08003F5
:102050004C6943EA040202608B68C3620B688362C6
:10206000054B984202D0084B984201D10B6903639B
:102070000123436110BD0000000001400004004046
:1020800000080040000C00400004014000400140F6
:10209000004401400048014000180040001C00407E
:1020A0000020004030B501F01F05012404FA05F3BB
:1020B000046A9C430462046A01F01F0502FA05F5F4
:1020C0002C43046230BD30B50C46816821F47F4159
:1020D00042EA032525432943816030BD30B5056AB6
:1020E00025F010050562026A4368846924F4E0441F
:1020F00024F440740D6844EA052422F020028D681F
:1021000042EA0512124DA84200D103E0114DA84247
:1021100007D100BF22F08002CD6842EA051222F00A
:1021200040020B4DA84202D00A4DA84209D123F427
:10213000806323F400634D6943EA85038D6943EAB4
:102140008503436084614D688563026230BD000091
:10215000000001400004014000BFFEE700B593B05D
:10216000302107A8FEF72BF9142102A8FEF727F962
:1021700000BF002001902448006840F080502249B0
:1021800008600846006800F08050019000BF00BF62
:1021900000BF002001901D48006840F480401B49AA
:1021A00008600846006800F48040019000BF00BF4E
:1021B000012007900004089002200D9041050E9127
:1021C00004210F91A8211091022111910421129153
:1021D00007A8FEF76BFC08B1FEF76AF90F20029022
:1021E00002200390002004904FF4A05005904FF47B
:1021F00080500690052102A8FEF73EFB08B1FEF7CD
:1022000057F913B000BD0000403802400070004094
:10221000014691F85800704780F85810704710B583
:102220000446606E60B9B4F84A100022E06CFEF714
:1022300051FAB4F850100022606DFEF74BFA1EE020
:10224000606E00280CDDB4F84A100122E06CFEF745
:1022500041FAB4F850100022606DFEF73BFA0EE030
:10226000606E00280BDAB4F84A100022E06CFEF72A
:1022700031FAB4F850100122606DFEF72BFA94F891
:10228000480028B9606E01F030F92168486318E011
:1022900094F84800042805D1606E01F026F9216801
:1022A00088630EE094F84800082805D1606E01F0BC
:1022B0001CF92168C86304E0606E01F016F921681A
:1022C000086410BD11B52DED040B00F5D0619DE83B
:1022D0001C0034311CC105B010BD70B504460E465B
:1022E00084F8B066002509E005EB051101EB451106
:1022F00004EBC100314600F068FB6D1C042DF3DBDC
:1023000070BD000070B52DED028B0446F7EE000A9B
:10231000BFEE000A04F2B46001F0BCF8F7EE000A68
:10232000BFEE000A04F5D76001F0B4F8F0EE000A41
:10233000B8EE000A04F2BC6001F0ACF804F580606D
:1023400090EDAD0A04F2B460D0ED020A9FED541A8C
:1023500001EE200AD0ED010A30EE600ADFED510AED
:10236000C0EE208A2046FFF753FF08B9012001E0A4
:102370004FF0FF3000EE100AB8EEC00A28EE808A57
:10238000B0EE480A204600F01DFB04F5806090ED99
:10239000AD0A04F2B460D0ED020A9FED411A11EECD
:1023A000200AD0ED010A30EE600ADFED3E0AC0EEF1
:1023B000208A04F5C470FFF72BFF08B9012001E063
:1023C0004FF0FF3000EE100AB8EEC00A28EE808A07
:1023D000B0EE480A04F5C47000F0F4FA04F5806029
:1023E00090EDAD0A04F2B460D0ED020A9FED2E1A12
:1023F00001EE200AD0ED010A30EE600ADFED290A75
:10240000C0EE208A04F54470FFF702FF08B90120EE
:1024100001E04FF0FF3000EE100AB8EEC00A28EEDF
:10242000808AB0EE480A04F5447000F0CBFA04F557
:10243000806090EDAD0A04F2B460D0ED020A9FED29
:102440001A1A11EE200AD0ED010A30EE600ADFED13
:10245000150AC0EE208A04F59360FFF7D9FE08B98B
:10246000012001E04FF0FF3000EE100AB8EEC00A84
:1024700028EE808AB0EE480A04F5936000F0A2FAD4
:10248000002508E005EB051101EB451104EBC10047
:1024900000F09EFA6D1C042DF4DBBDEC028B70BDC8
:1024A0005A64FBBECDCC4C3D5A64FB3E0FB430B5F4
:1024B000CFB004463D2253A904F5C460FDF74DFF9B
:1024C0009DF8891184F85D169DF88A1184F85E16CE
:1024D0009DF88B1184F85F169DF88C1184F86016B6
:1024E0009DF88D1184F861169DF88E1184F862169E
:1024F0009DF88F1184F863169DF8901184F8641686
:102500009DF8911184F865169DF8921184F866166D
:102510003D2265A904F5CD60FDF71FFF9DF8D1119F
:1025200084F8A5169DF8D21184F8A6169DF8D3114B
:1025300084F8A7169DF8D41184F8A8169DF8D51133
:1025400084F8A9169DF8D61184F8AA169DF8D7111B
:1025500084F8AB169DF8D81184F8AC169DF8D91103
:1025600084F8AD169DF8DA1184F8AE163D2265A9FF
:102570003DA8FDF7F2FE9DF8D1018DF831019DF8DF
:10258000D2018DF832019DF8D3118DF833119DF8E9
:10259000D4118DF834119DF8D5118DF835119DF8B1
:1025A000D6018DF836019DF8D7118DF837119DF8B9
:1025B000D8118DF838119DF8D9118DF839119DF881
:1025C000DA018DF83A013D2253A92BA8FDF7C5FE8B
:1025D0009DF889018DF8E9009DF88A018DF8EA00DF
:1025E0009DF88B118DF8EB109DF88C118DF8EC1087
:1025F0009DF88D118DF8ED109DF88E018DF8EE008F
:102600009DF88F118DF8EF109DF890118DF8F01056
:102610009DF891118DF8F1109DF892018DF8F2005E
:10262000E04881150123CDE926304822CDE9281064
:102630003DA914A8FDF791FEDB488114DB4A202355
:10264000CDE91032CDE9121000203C222EA90F90C6
:102650006846FDF782FE20462BA90EC900F058FA05
:1026600001212046FFF7D8FD3D2265A93DA8FDF7D1
:1026700074FE9DF8D1018DF831019DF8D2018DF8DD
:1026800032019DF8D3118DF833119DF8D4118DF8D6
:1026900034119DF8D5118DF835119DF8D6018DF8BE
:1026A00036019DF8D7118DF837119DF8D8118DF8A6
:1026B00038119DF8D9118DF839119DF8DA018DF88E
:1026C0003A013D2253A92BA8FDF747FE9DF8890149
:1026D0008DF8E9009DF88A018DF8EA009DF88B11CC
:1026E0008DF8EB109DF88C118DF8EC109DF88D1184
:1026F0008DF8ED109DF88E018DF8EE009DF88F118C
:102700008DF8EF109DF890118DF8F0109DF8911153
:102710008DF8F1109DF892018DF8F200A148411555
:102720000223CDE926304822CDE928103DA914A87E
:10273000FDF713FE9C484FF400519D4AC314CDE9A8
:102740001032CDE9121004203C222EA90F906846C9
:10275000FDF703FE04F5C4702BA90EC900F0D8F9EB
:10276000012104F5C470FFF757FD3D2265A93DA87E
:10277000FDF7F3FD9DF8D1018DF831019DF8D201EF
:102780008DF832019DF8D3118DF833119DF8D411D5
:102790008DF834119DF8D5118DF835119DF8D601BD
:1027A0008DF836019DF8D7118DF837119DF8D811A5
:1027B0008DF838119DF8D9118DF839119DF8DA018D
:1027C0008DF83A013D2253A92BA8FDF7C6FD9DF8CF
:1027D00089018DF8E9009DF88A018DF8EA009DF8DD
:1027E0008B118DF8EB109DF88C118DF8EC109DF885
:1027F0008D118DF8ED109DF88E018DF8EE009DF88D
:102800008F118DF8EF109DF890118DF8F0109DF854
:1028100091118DF8F1109DF892018DF8F200614848
:1028200001150423CDE926304822CDE928103DA921
:1028300014A8FDF792FD5D4810215D4A4315CDE9CE
:102840001032CDE9121008203C222EA90F906846C4
:10285000FDF783FD04F544702BA90EC900F058F96B
:10286000012104F54470FFF7D7FC3D2265A93DA87E
:10287000FDF773FD9DF8D1018DF831019DF8D2016E
:102880008DF832019DF8D3118DF833119DF8D411D4
:102890008DF834119DF8D5118DF835119DF8D601BC
:1028A0008DF836019DF8D7118DF837119DF8D811A4
:1028B0008DF838119DF8D9118DF839119DF8DA018C
:1028C0008DF83A013D2253A92BA8FDF746FD9DF84E
:1028D00089018DF8E9009DF88A018DF8EA009DF8DC
:1028E0008B118DF8EB109DF88C118DF8EC109DF884
:1028F0008D118DF8ED109DF88E018DF8EE009DF88C
:102900008F118DF8EF109DF890118DF8F0109DF853
:1029100091118DF8F1109DF892018DF8F200214887
:10292000C1140823CDE926304822CDE928103DA95D
:1029300014A8FDF712FD1F484FF480418315CDE91F
:102940001030CDE912100C203C222EA90F906846C1
:10295000FDF703FD04F593602BA90EC900F0D8F82C
:10296000012104F59360FFF757FC002514E005EB07
:10297000051101EB451104EBC10101F168009FED68
:102980000E2ADFED0D1AB3EE091ADFED0C0A9FEDEA
:102990000C0A00F079FB6D1C042DE8DB4FB030BC55
:1029A0005DF814FB000802400004024000140240DD
:1029B000000C0240001002400000804F00803B45A8
:1029C0000000FA4480ED5F0A704780F86811704794
:1029D00010B52DED028B044604F5B474D4E9010161
:1029E000401A08EE100A94ED030AF8EEC80A80EEC9
:1029F000801A94ED060A31EE000A84ED060A94ED81
:102A0000030AB8EEC81AC1EE000A9FED400A80EE34
:102A1000801A84ED041A6068A0602078A4F5B4746C
:102A200080B9D4ED5F0A94ED180AB8EEC00A20EE22
:102A3000800AD4ED170A80EE201ABDEEC10A84ED9B
:102A4000190A56E094F8680101281CD1D4ED5E0AF9
:102A5000B0EE600A04F1680000F024FBD4ED5F0AD8
:102A6000B0EE600A04F1680000F0FAF904F16800C1
:102A700000F0FAF904F1680000F011FBBDEEC00AA5
:102A800084ED190A35E094F86801022831D1D4EDBB
:102A9000610AB0EE600A04F1BC0000F0E1F9D4ED87
:102AA000600AB0EE600A04F1BC0000F0FBFA04F129
:102AB000BC0000F0D9F904F1BC0000F0F0FAF0EE2F
:102AC000408A04F1680000F0CBF9D4ED5E0AB0EE64
:102AD000600A04F1680000F0E5FA04F1680000F013
:102AE000C3F904F1680000F0DAFABDEEC00A84ED23
:102AF000190A47F6FF72514204F1640000F0DEFC4F
:102B00002046FFF78CFBBDEC028B10BDCDCC4C3DBD
:102B10000FB42DE9F05F0446DDE934AB1DAD95E857
:102B2000E0033D220BA92046FDF717FC9DF8690044
:102B300084F83D009DF86A0084F83E009DF86B1013
:102B40003F2001559DF86C10402001559DF86D10F7
:102B5000412001559DF86E0084F842009DF86F10E9
:102B6000432001559DF87010442001559DF87110C7
:102B7000452001559DF8720084F8460084F84850BD
:102B8000A4F84A60E764A4F85080C4F854903D2249
:102B900022A904F58870FDF7E0FB9DF8C51084F8C4
:102BA0004D119DF8C61084F84E119DF8C71084F899
:102BB0004F119DF8C81084F850119DF8C91084F881
:102BC00051119DF8CA1084F852119DF8CB1084F869
:102BD00053119DF8CC1084F854119DF8CD1084F851
:102BE00055119DF8CE1084F85611A4F858A1C4F8D8
:102BF0005CB13698A4F860013798C4F8640129469E
:102C00000BA8FEF70BFEBDE8F01F5DF814FB0000FB
:102C100010B50446002184F858109FED190A84ED80
:102C2000170A47F6FF712166002104F1680061660A
:102C300000F03CFAA0F16804543000F037FAA0F13B
:102C4000BC04012084F868010020C4F86C019FEDE9
:102C50000D0AC4F8700184ED5D0A9FED0B0A84ED46
:102C60005E0A9FED090A84ED5F0A9FED070A84ED75
:102C7000600A9FED050A84ED610A204610BD000040
:102C8000852C9F41C9FC09430000000030B5056A4E
:102C900025F001050562026A4368846924F0700426
:102CA00024F003040D682C4322F002028D682A43AD
:102CB000104DA84200D103E00F4DA84206D100BF3D
:102CC00022F00802CD682A4322F00402094DA842EE
:102CD00002D0094DA84207D123F4807323F4007376
:102CE0004D692B438D692B43436084614D68456377
:102CF000026230BD000001400004014030B5056AA9
:102D000025F480750562026A4368C46924F0700482
:102D100024F003040D682C4322F400728D6842EA0B
:102D20000522124DA84200D103E0114DA84207D15F
:102D300000BF22F40062CD6842EA052222F48062DC
:102D40000A4DA84202D00A4DA84209D123F480536B
:102D500023F400534D6943EA05138D6943EA0513D3
:102D60004360C4614D68C563026230BD000001402C
:102D70000004014030B5056A25F480550562036AF8
:102D80004468C26922F4E04222F440720D6842EACB
:102D9000052223F400538D6843EA0533084DA84209
:102DA00002D0084DA84204D124F480444D6944EA7D
:102DB00085144460C2614D680564036230BD000043
:102DC00000000140000401400A46816821F07001C2
:102DD00042F0070319438160704730B50B46144633
:102DE000026A056A25F001050562816921F0F0019A
:102DF00041EA041122F00A021A438161026230BDE5
:102E000030B50B461446056A25F010050562816948
:102E1000026A21F4704141EA043122F0A00242EA40
:102E200003128161026230BD10B5002804DB0A077D
:102E3000130E054A135406E00A07140E034A00F065
:102E40000F031B1FD45410BD00E400E018ED00E098
:102E500002480068C0F30220704700000CED00E05B
:102E600080ED060A7047000010B52DED048B044676
:102E700094ED060AD4ED070A30EE600A84ED080AE4
:102E8000D4ED080AB0EE600A00F022FBB0EE408AF2
:102E900094ED100AB4EEC80AF1EE10FA06DD9FEDCB
:102EA000790A84ED090ABDEC048B10BD94ED010A8A
:102EB000D4ED080A20EE200A84ED0D0A94ED110AE3
:102EC000B5EEC00AF1EE10FA09D194ED110AB5EE93
:102ED000C00AF1EE10FA02D1F7EE008A39E094ED63
:102EE000120AB4EEC80AF1EE10FA02DDF7EE008A1B
:102EF00024E094ED110AD4ED120A70EE200A94ED4C
:102F0000120AB4EEC80AF1EE10FA01D8012000E06E
:102F1000002000EE100AB8EEC00AF4EEC00AF1EE8E
:102F200010FA0BDD94ED110AD4ED120A30EE200AEE
:102F300030EE480AD4ED110AC0EE208A94ED120A50
:102F4000B4EEC80AF1EE10FA03D89FED4E0AF0EE87
:102F5000408A94ED0B0AD4ED000A60EEA80A94EDC5
:102F6000081A00EE810A84ED0B0A94ED040AB5EE0E
:102F7000C00AF1EE10FA19D094ED040AD4ED020A59
:102F800080EE201AB0EE419A94ED040AB1EE400AA8
:102F9000D4ED020A80EE201AF0EE419AF0EE490AD2
:102FA000B0EE690A04F12C0000F074FA94ED130AF3
:102FB000B5EEC00AF1EE10FA08D194ED020AD4ED94
:102FC0000B0A20EE200A84ED0E0A13E094ED130A9A
:102FD000B4EEC80AF1EE10FA08DD94ED020AD4ED61
:102FE0000B0A20EE200A84ED0E0A03E09FED250A6D
:102FF00084ED0E0A94F8500001280CD194ED070AD4
:10300000D4ED0A0A30EE600AD4ED030A20EE200A5D
:1030100084ED0F0A0BE094ED080AD4ED0C0A30EEB3
:10302000600AD4ED030A20EE200A84ED0F0A94ED25
:10303000080A84ED0C0A94ED070A84ED0A0A94ED5F
:103040000D0AD4ED0E0A30EE200AD4ED0F0A30EE50
:10305000200A84ED090A94ED050AB5EEC00AF1EEE6
:1030600010FA0DD094ED051AF0EE410A94ED051A10
:10307000B1EE411AB0EE410A04F1240000F00AFA60
:1030800000BF10E70000000080ED010AC0ED020A59
:1030900080ED031AC0ED041A80ED052A704790ED0B
:1030A000090A704780ED070A704700009FED190A72
:1030B00080ED000A9FED180A80ED060A9FED160AC2
:1030C00080ED070A9FED140A80ED080A9FED120AB1
:1030D00080ED090A9FED100A80ED0D0A9FED0E0AA2
:1030E00080ED0E0A9FED0C0A80ED0F0A9FED0A0A93
:1030F00080ED100A9FED080A80ED110A9FED060A87
:1031000080ED120A9FED040A80ED130A002180F879
:1031100050107047CDCCCC3D000000002DE9F041AF
:103120001C4617460E00804607D0054602E028469A
:10313000B0473D442046641EF9D24046BDE8F081C8
:1031400010B5094C04234FF4C47208492046FFF718
:10315000E5FF0446012084F8B00604F5D060044B76
:103160000ECB34300EC010BD10000020112C000812
:103170004C350008DAB0FDF7C5FAFEF7EFFFFEF7B1
:10318000D5FBFEF795FDFEF7EBFDFEF753FEFEF7D0
:103190001BFDFEF7B9FE3D22BA4933A8FDF7DDF865
:1031A000B84890F83D008DF80901B64890F83E0007
:1031B0008DF80A01B34890F83F108DF80B1190F884
:1031C00040108DF80C1190F841108DF80D1190F809
:1031D00042008DF80E01AB4890F843108DF80F11A6
:1031E00090F844108DF8101190F845108DF81111D9
:1031F00090F846008DF812013D22A34921A8FDF761
:10320000ACF8A14890F83D008DF8C1009E4890F8B8
:103210003E008DF8C2009C4890F83F108DF8C31016
:1032200090F840108DF8C41090F841108DF8C5103A
:1032300090F842008DF8C600934890F843108DF83E
:10324000C71090F844108DF8C81090F845108DF80C
:10325000C91090F846008DF8CA00482233A90FA87B
:10326000FDF77BF83C2224A96846FDF776F88748ED
:1032700021A90EC9FFF71AF900218448FFF72DF89C
:103280008048FDF7B9FF824AD2E90010926859924E
:10329000579158907E4A0C32D2E9001092685692AB
:1032A000549155907A4A1832D2E90010926853929C
:1032B00051915290764A2432D2E90010926850928D
:1032C0004E914F90724A3032D2E9001092684D927E
:1032D0004B914C906E4A3C3207CA48AB07C3002062
:1032E0004590469047909DED471ADDED460A9DEDCD
:1032F000450A6648FEF7E6FF4FF47A70FDF7DCF802
:10330000BFE09DED591ADDED580A9DED570A5F4863
:10331000FEF7D8FF5D48FEF7F5FF4FF4FA60FDF7C2
:10332000CBF89DED471ADDED460A9DED450A57485D
:10333000FEF7C8FF5548FEF7E5FF4FF47A70FDF73A
:10334000BBF89DED531ADDED520A9DED510A4F4831
:10335000FEF7B8FF4D48FEF7D5FF4FF4FA60FDF7D2
:10336000ABF89DED471ADDED460A9DED450A47484D
:10337000FEF7A8FF4548FEF7C5FF4FF47A70FDF74A
:103380009BF89DED4D1ADDED4C0A9DED4B0A3F4833
:10339000FEF798FF3D48FEF7B5FF4FF4FA60FDF7E2
:1033A0008BF89DED471ADDED460A9DED450A37483D
:1033B000FEF788FF3548FEF7A5FF4FF47A70FDF75A
:1033C0007BF89DED4A1ADDED490A9DED480A2F482C
:1033D000FEF778FF2D48FEF795FF4FF4FA60FDF7F2
:1033E0006BF89DED471ADDED460A9DED450A27482D
:1033F000FEF768FF2548FEF785FF4FF47A70FDF76A
:103400005BF89DED501ADDED4F0A9DED4E0A1F4809
:10341000FEF758FF1D48FEF775FF4FF4FA60FDF701
:103420004BF89DED471ADDED460A9DED450A17481C
:10343000FEF748FF1548FEF765FF4FF47A70FDF779
:103440003BF89DED561ADDED550A9DED540A0F48E7
:10345000FEF738FF0D48FEF755FF4FF4FA60FDF711
:103460002BF89DED471ADDED460A9DED450A07480C
:10347000FEF728FF0548FEF745FF4FF47A70FDF789
:103480001BF83EE718070020A807002010000020C6
:103490000435000890ED001AB4EEC01AF1EE10FAEF
:1034A00002D280ED000A08E090ED001AB4EEE01AB6
:1034B000F1EE10FA01DDC0ED000A704703688B429F
:1034C00001DA016003E00368934200DD02607047A7
:1034D000F0EE400AF5EEC00AF1EE10FA02DDB0EEB1
:1034E000600A7047B1EE600AFBE70146002901DD82
:1034F000084670474842FCE74FF04070E1EE100A82
:1035000070470000000000009A99993E00000000FA
:10351000000000009A9999BE000000009A99993E17
:1035200000000000000000009A9999BE0000000011
:103530000000000000000000000000009A99193F00
:1035400000000000000000009A9919BF0000000070
:10355000000000000000000000000000000000006B
:103560000102030406070809000000000102030429
:10357000943500080000002010000000C40100087D
:10358000A435000810000020880E0000E0010008AB
:10359000B1FBFFFF00000000100000000100000070
:0435A0000024F4000F
:040000050800018965
:00000001FF
