:020000040800F2
:10000000B80F00202D020008D92C0008DD240008BC
:10001000D52C0008AB040008892E00080000000061
:10002000000000000000000000000000DF2C0008BD
:10003000C104000800000000DD2C0008E12C0008CD
:10004000470200084702000847020008470200086C
:10005000470200084702000847020008470200085C
:10006000470200084702000847020008470200084C
:10007000470200084702000847020008470200083C
:10008000470200084702000847020008470200082C
:10009000470200084702000847020008470200081C
:1000A000470200084702000847020008470200080C
:1000B00047020008470200084702000847020008FC
:1000C00047020008470200084702000847020008EC
:1000D00047020008470200084702000847020008DC
:1000E00047020008470200084702000847020008CC
:1000F00047020008470200084702000847020008BC
:1001000047020008470200084702000847020008AB
:10011000470200084702000847020008470200089B
:10012000B10400084702000847020008470200081F
:10013000470200084702000847020008470200087B
:10014000470200084702000847020008470200086B
:10015000470200084702000847020008470200085B
:10016000470200084702000847020008470200084B
:10017000470200084702000847020008000000008C
:10018000470200084702000800F002F800F03EF8BD
:100190000AA090E8000C82448344AAF10107DA45E2
:1001A00001D100F033F8AFF2090EBAE80F0013F0F6
:1001B000010F18BFFB1A43F001031847084600005F
:1001C00028460000103A24BF78C878C1FAD85207F0
:1001D00024BF30C830C144BF04680C6070470000C1
:1001E0000023002400250026103A28BF78C1FBD840
:1001F000520728BF30C148BF0B6070471FB504F0DD
:10020000A1FA00F007F91FBD10B510BD00F014F9F8
:100210001146FFF7F3FF04F0E3F800F032F903B4FE
:10022000FFF7F2FF03BC00F039F9000009488047EE
:1002300009480047FEE7FEE7FEE7FEE7FEE7FEE7C8
:10024000FEE7FEE7FEE7FEE704480549054A064BE0
:1002500070470000E92C000889010008B809002057
:10026000B80F0020B80B0020B80B002053EA020C96
:1002700000F069802DE9F04B4FF00006002B1FBF06
:10028000B3FA83F503FA05F424FA05F65E4012BFCB
:100290001643B2FA82F502FA05F4C5F120051EBF35
:1002A00022FA05FC44EA0C04203556EA044C4FEAD5
:1002B000144418BF641C4FF000084FF0000990422E
:1002C00071EB030C39D3002919BFB1FA81F701FA98
:1002D00007F6B0FA80F700FA07F6C7F120071EBF4D
:1002E00020FA07FC46EA0C062037B6FBF4FCA7EB25
:1002F0000507103F07F01F0BCBF120060CFA0BFB94
:100300002CFA06F644BFB3460026202FA4BF5E4653
:100310004FF0000B5BEA060C08BF4FF0010B19EB26
:100320000B09ABFB027C48EB0608C01B06FB02CCAA
:100330000BFB03CC71EB0C01C1E70B4602464146B7
:100340004846BDE8F08B13B54FF000004FF00001B8
:10035000AFF30080BDE81C40704710B5203AC0F0F4
:100360000B80B1E81850203AA0E81850B1E81850B6
:10037000A0E81850BFF4F5AF5FEA027C24BFB1E8F3
:100380001850A0E8185044BF18C918C0BDE8104064
:100390005FEA827C24BF51F8043B40F8043B08BF6D
:1003A0007047D20728BF31F8023B48BF11F8012B34
:1003B00028BF20F8023B48BF00F8012B70474FF0E0
:1003C000000200B5134694469646203922BFA0E8A5
:1003D0000C50A0E80C50B1F12001BFF4F7AF0907B1
:1003E00028BFA0E80C5048BF0CC05DF804EB8900A2
:1003F00028BF40F8042B08BF704748BF20F8022BE5
:1004000011F0804F18BF00F8012B704770477047FC
:100410007047000070B5064C7C44064D7D4403E0F7
:10042000206820448047241DAC42F9D170BD0000F3
:10043000C8430000C8430000754600F02BF8AE46E4
:1004400005006946534620F00700854618B020B5E0
:10045000FFF7FAFEBDE820404FF000064FF000071E
:100460004FF000084FF0000B21F00701AC46ACE85C
:10047000C009ACE8C009ACE8C009ACE8C0098D46C9
:10048000704710B50446AFF300802046BDE8104029
:10049000FFF7C5BE004870475809002001491820E1
:1004A000ABBEFEE726000200704700BFFEE700007B
:1004B00010B5024800F060FB10BD000024070020CA
:1004C000704772B600BFFEE738B5024600200090C4
:1004D00000BF92F83C00012801D1022038BD012064
:1004E00082F83C0000BF0868092816D91068C06867
:1004F0000C780A3C04EB44050724AC40A043146884
:10050000E0600C780A3C04EB44048868A04014685E
:10051000E46820431468E06013E0106800690C7818
:1005200004EB44050724AC40A043146820610C7818
:1005300004EB44048868A0401468246920431468CC
:1005400020614868072817D21068406B0C79641E38
:1005500004EB84051F24AC40A04314686063088842
:1005600080B20C79641E04EB8404A0401468646BB0
:1005700020431468606331E048680D2817D2106882
:10058000006B0C79E41F04EB84051F24AC40A043EE
:1005900014682063088880B20C79E41F04EB84049B
:1005A000A0401468246B20431468206316E0106890
:1005B000C06A0C790D3C04EB84051F24AC40A043B9
:1005C0001468E062088880B20C790D3C04EB840466
:1005D000A0401468E46A20431468E062194B1A4C86
:1005E0001068A04206D10868122803D1586840F468
:1005F00080005860144C1068A0421CD10868102874
:1006000002D00868112816D1586840F400005860DC
:10061000086810280FD10D4800680D4CB0FBF4F0AD
:1006200000EB80004000009002E00098401E009027
:1006300000980028F9D100BF002082F83C0000BFDC
:1006400000BF4BE7002301400020014018000020BC
:1006500040420F00704770477047000070B5044675
:1006600000250CB9012070BD1549A06A884200D050
:1006700000BF206C30B9204600F024F800206064F0
:1006800084F83C00206C00F0100088B9206C20F445
:10069000885040F002002064204603F0E1F9002079
:1006A0006064206C20F0020040F00100206400E053
:1006B000012500BF002084F83C0000BF2846D2E797
:1006C0000100000F10B586B00446142101A8FFF701
:1006D00076FE37492068884268D100BF002000902C
:1006E0003448006840F48070324908600846006869
:1006F00000F48070009000BF00BF00BF0020009099
:100700002C481438006840F004002A491439086065
:100710000846006800F00400009000BF00BF00BF62
:10072000002000900846006840F00100086008467C
:10073000006800F00100009000BF00BF032001909E
:1007400002900020039001A91B4800F009FCC02082
:100750000190032002900020039001A9174800F0A7
:10076000FFFB174817490860002048600021154822
:100770008160C1604FF4806101614900416189007D
:1007800081614911C161002101620421416203219B
:1007900081620021C162016300F00EFB08B1FFF726
:1007A00090FE00BF0748A063846300BF06B010BD81
:1007B000002001404438024000080240000002408E
:1007C0001064024024070020F8B504460D46164682
:1007D0000020009000BF94F83C00012801D10220C5
:1007E000F8BD012084F83C0000BF2068806800F05C
:1007F0000100A0B92068806840F00100216888608D
:10080000554800685549B0FBF1F000EB40000090FE
:1008100002E00098401E009000980028F9D120685E
:10082000806800F48070B0F5807F05D12068806812
:1008300020F48070216888602068806800F00100E2
:1008400000287ED0206C40F20161884340F4807023
:1008500020642068406800F4806028B1206C20F497
:10086000005040F480502064206C00F48050B0F5BB
:10087000805F04D1606C20F00600606401E000201D
:10088000606400BF002084F83C0000BF344F35484E
:10089000A16BC8633448A16B08643448A16BC86479
:1008A0006FF02200216808602068406840F0806096
:1008B000216848602068806840F480702168886002
:1008C000226802F14C0133462A46A06B00F0EAFA96
:1008D000786800F01F0018BB25492068884213D0B3
:1008E00024492068884204D1381D006800F01F00A8
:1008F00050B12149206888422BD11948001D006859
:1009000000F01F00102824D22068806800F04050BA
:10091000F8B92068806840F080402168886018E05D
:1009200013492068884214D12068806800F0405044
:1009300078B92068806840F080402168886008E0CD
:10094000FFE7206C40F010002064606C40F0010074
:100950006064002044E700001800002040420F00BF
:1009600000230140D3390008513A0008B939000882
:1009700000200140002101400022014070B50446E2
:100980000CB9012070BD94F8200010B9204600F089
:10099000AFF82068006840F001002168086000F0AE
:1009A000DFFB05460DE000F0DBFB401B0A2808D901
:1009B000606A40F400306062052084F82000012065
:1009C000E0E72068406800F001000028EBD02068D4
:1009D000006820F002002168086000F0C1FB0546B5
:1009E0000DE000F0BDFB401B0A2808D9606A40F406
:1009F00000306062052084F820000120C2E72068F2
:100A0000406800F002000028EBD1207E012806D1CA
:100A10002068006840F080002168086005E02068D8
:100A2000006820F0800021680860607E012806D1FF
:100A30002068006840F040002168086005E02068F8
:100A4000006820F0400021680860A07E012806D1DF
:100A50002068006840F020002168086005E02068F8
:100A6000006820F0200021680860E07E012806D19F
:100A70002068006820F010002168086005E0206808
:100A8000006840F0100021680860207F012806D12E
:100A90002068006840F008002168086005E02068D0
:100AA000006820F0080021680860607F012806D1F6
:100AB0002068006840F004002168086005E02068B4
:100AC000006820F0040021680860D4E902010843AE
:100AD00021690843616908436168491E0843216828
:100AE000C86100206062012084F82000002049E7EE
:100AF00010B586B00446142101A8FFF760FC1B491D
:100B00002068884230D100BF00200090184800685B
:100B100040F00070164908600846006800F0007058
:100B2000009000BF00BF00BF0020009010481038A8
:100B3000006840F001000E4910390860084600685E
:100B400000F00100009000BF00BF4FF4C0500190C2
:100B500002200290002003900320049009200590B9
:100B600001A9044800F0FCF906B010BD0064004083
:100B70004038024000000240F8B5044600200090D2
:100B80008C4800684FF41651B0FBF1F7A56D2E6844
:100B900094F85C1008208840304098B120680068C4
:100BA00000F0040070B12068006820F004002168A3
:100BB000086094F85C1008208840A860606D40F0E0
:100BC0000100606594F85C1001208840304068B1F5
:100BD0002068406900F0800040B194F85C1001206A
:100BE0008840A860606D40F00200606594F85C1079
:100BF00004208840304068B12068006800F002009E
:100C000040B194F85C1004208840A860606D40F00A
:100C10000400606594F85C1010208840304078B380
:100C20002068006800F0080050B394F85C101020B1
:100C30008840A8602068006800F4802080B12068A7
:100C4000006800F4002028B9206CC8B12046216C4F
:100C5000884715E0A06C98B12046A16C88470FE04A
:100C60002068006800F4807028B92068006820F0CF
:100C7000080021680860206C10B12046216C88476C
:100C800094F85C10202088403040002865D020680F
:100C9000006800F0100000285FD094F85C1020205D
:100CA0008840A86094F83500052828D1206800689D
:100CB00020F01600216808602068406920F080005C
:100CC00021684861206C08B9A06C28B120680068D0
:100CD00020F008002168086094F85C103F208840EC
:100CE000A860012084F8350000BF002084F834009B
:100CF00000BF206D10B12046216D8847F8BD2068E7
:100D0000006800F4802080B12068006800F40020B2
:100D100028B9606C10B12046616C88471DE0E06B1B
:100D2000D8B12046E16B884717E02068006800F4DE
:100D3000807068B92068006820F0100021680860A1
:100D4000012084F8350000BF002084F8340000BF83
:100D5000E06B10B12046E16B8847606D38B3606D81
:100D600000F00100F0B1052084F83500206800682B
:100D700020F001002168086000BF0098401C00902E
:100D8000B84200D905E02068006800F001000028A2
:100D9000F3D100BF012084F8350000BF002084F8A3
:100DA000340000BFE06C10B12046E16C884700BF02
:100DB000A4E70000180000202DE9F04104460025BA
:100DC00000F0CEF9074614B90120BDE8F081606A51
:100DD00000B100BF022084F8350000BF002084F875
:100DE000340000BF2068006820F00100216808601E
:100DF0000AE000F0B5F9C01B052805D92020606580
:100E0000032084F83500E0E72068006800F0010066
:100E10000028EED12068056821480540D4E9010189
:100E20000843E16808432169084361690843A169EF
:100E30000843E1690843216A08430543606A0428BE
:100E400003D1D4E90B0108430543206805602068FD
:100E5000456925F00705606A0543606A04280DD1DD
:100E6000A06A0543E06A48B1204602F0BFFE28B1FF
:100E700040206065012084F83500A6E720684561C0
:100E8000204602F009FF064694F85C103F20884097
:100E9000B06000206065012084F83500002094E7F0
:100EA0003F8010F02DE9F04704460D4616461F46D8
:100EB0004FF00008D4F8589000BF94F8340001288F
:100EC00002D10220BDE8F087012084F8340000BF81
:100ED00094F83500012825D1022084F8350000203F
:100EE00060653B4632462946204602F069FE94F88A
:100EF0005C103F208840C9F808002068006840F076
:100F0000160021680860206C28B12068006840F055
:100F10000800216808602068006840F0010021682E
:100F2000086006E000BF002084F8340000BF4FF0E6
:100F300002084046C6E7000070B5044600F010F90C
:100F400006462546681C10B104480078054400BFD9
:100F500000F006F9801BA842FAD370BD14000020EF
:100F6000F8B502460B460025002400200021D6E0FB
:100F7000012606FA01F51E6806EA0504AC4274D1A2
:100F80001E7906F00306012E04D01E7906F0030632
:100F9000022E13D190684F000326BE40B0434F008D
:100FA000DE68BE4030439060506801268E40B043FA
:100FB0001E79C6F300168E40304350601E7906F04D
:100FC0000306032E09D0D0684F000326BE40B0436D
:100FD0004F009E68BE403043D0601E7906F0030685
:100FE000022E13D1CF0802F1200656F827004E0733
:100FF000F70E0F26BE40B0434F07FF0E1E69BE40DE
:101000003043CF0802F1200646F8270010684F0051
:101010000326BE40B0431E7906F003064F00BE40D3
:10102000304310605E6806F44036002E76D000BF74
:10103000002600963C4E366846F480463A4F3E60A5
:101040003E46366806F48046009600BF00BF374E25
:101050008F0856F827008E07370F0F26BE40B04383
:10106000334EB24202D1002624E057E0314EB24264
:1010700001D101261EE0304EB24201D1022619E014
:101080002E4EB24201D1032614E02D4EB24201D1C0
:1010900004260FE02B4EB24201D105260AE02A4E6B
:1010A000B24201D1062605E0284EB24201D1072600
:1010B00000E008268F073F0FBE4030431B4E8F08CD
:1010C00046F82700224E3068A0435E6806F480167A
:1010D00006B120431E4E3060361D3068A0435E6866
:1010E00006F4001606B12043194E361D3060184E26
:1010F000361F3068A0435E6806F4003606B1204310
:10110000134E361F3060361F3068A0435E6806F409
:10111000803606B120430E4E083E3060491C10292F
:10112000FFF426AFF8BD0000443802400838014003
:10113000000002400004024000080240000C02408F
:10114000001002400014024000180240001C02403F
:10115000083C01400AB1816101E00B0483617047E2
:1011600001480068704700000C0000200348006838
:101170000349097808440149086070470C000020C1
:101180001400002010B50D48006840F400700B49B1
:1011900008600846006840F48060086008460068FF
:1011A00040F480700860032000F0A2F80F2000F0E7
:1011B00007F800F02BF8002010BD0000003C0240B2
:1011C00070B504460E4800784FF47A71B1FBF0F028
:1011D0000C490968B1FBF0F5284600F02BFC08B17A
:1011E000012070BD102C07D200222146501E00F0B5
:1011F00041F80548046001E00120F2E70020F0E733
:1012000014000020180000201000002008B500BFC6
:10121000002000900E48006840F480400C490860AF
:101220000846006800F48040009000BF00BF00BF87
:1012300000200090081F006840F08050091F0860DF
:101240000846006800F08050009000BF00BF08BD55
:101250004438024001460846002809DB00F01F031D
:1012600001229A4043099B0003F1E023C3F80021C7
:1012700000BF70472DE9F05F80460D4616460027F7
:1012800002F01CFF074639462A46334601F00700A4
:10129000C0F1070ABAF1040F02D94FF0040A01E0C5
:1012A000C0F1070AD14600F1040ABAF1070F02D2D1
:1012B0004FF0000A01E0A0F1030AD4464FF0010A02
:1012C0000AFA09FAAAF1010A0AEA020A0AFA0CFA67
:1012D0004FF0010B0BFA0CFBABF1010B0BEA030B0C
:1012E0004AEA0B042146404602F0D4FEBDE8F09FD6
:1012F00000BF00F00702064B19684FF6FF031940C4
:10130000044B0B4343EA0221014B196000BF7047B5
:101310000CED00E00000FA0570B504460D460CB96E
:10132000012070BD5848006800F00700A84209D2AB
:1013300055490D700846006800F00700A84201D02A
:101340000120EEE7207800F0020002281DD120786D
:1013500000F00400042805D14C48006840F4E05037
:101360004A490860207800F00800082805D147485D
:10137000006840F46040454908604448006820F037
:10138000F000A168084341490860207800F001009E
:10139000A8B36068012807D13C4808380068C0F34A
:1013A0004040B8B90120BCE76068022802D06068FC
:1013B000032807D1354808380068C0F3406048B9B1
:1013C0000120AEE7314808380068C0F3400008B992
:1013D0000120A6E72D48006820F00300616808435B
:1013E0002A490860FFF7BCFE064609E0FFF7B8FE91
:1013F000801B41F28831884202D9032091E707E03F
:101400002248006800F00C006168B0EB810FEDD15C
:101410001D48006800F00700A84209D91A490D705C
:101420000846006800F00700A84201D0012078E7D4
:10143000207800F00400042807D11448006820F444
:10144000E050E168084311490860207800F0080086
:10145000082808D10D48006820F46040216940EA5E
:10146000C1000A49086000F03FF808490968C1F363
:101470000311074A515CC8400649086006480068E5
:10148000FFF79EFE00204CE7003C02400838024077
:10149000AC47000818000020100000200148006838
:1014A000704700001800002000B5FFF7F7FF04495F
:1014B0000968C1F38221034A515CC84000BD0000A5
:1014C00008380240BC47000800B5FFF7E7FF0449B1
:1014D0000968C1F34231034A515CC84000BD0000B5
:1014E00008380240BC4700082DE9F04700240025D9
:1014F0000026A1462548006800F00C0020B1042811
:1015000005D008283AD105E0DFF8849039E0DFF80B
:10151000849036E01D48001F006800F03F041B481F
:10152000001F006800F4800078B11A481749091FAD
:101530000968C1F38811A0FB01700146224600230F
:101540003846FEF793FE05460EE011480F49091F85
:101550000968C1F38811A0FB0170014622460023EF
:101560003846FEF783FE05460848001F0068C0F3B2
:101570000140401C4600B5FBF6F902E0DFF8109090
:1015800000BF00BF4846BDE8F087000008380240B1
:101590000024F40000127A00F8B504460CB90120CA
:1015A000F8BD207800F00100002874D0F9480068E8
:1015B00000F00C0004280DD0F648006800F00C0084
:1015C000082813D1F348001F006800F48000B0F52C
:1015D000800F0BD1EF4808380068C0F34040002866
:1015E00059D06068002856D10120D9E700BF606853
:1015F000B0F5803F08D1E7480838006840F48030F3
:10160000E449083908601EE06068B0F5A02F0DD1EC
:10161000E0480838006840F48020DE490839086056
:101620000846006840F4803008600CE0D94808386B
:10163000006820F48030D7490839086008460068FF
:1016400020F48020086000BF606890B1FFF788FD3B
:10165000054606E0FFF784FD401B642801D90320FE
:101660009EE7CC4808380068C0F340400028F1D01D
:1016700011E0FFF775FD054606E0FFF771FD401B21
:10168000642801D903208BE7C24808380068C0F3FA
:1016900040400028F1D1207800F0020002285FD1FC
:1016A000BC48006800F00C0058B1BA48006800F06F
:1016B0000C0008281CD1B748001F006800F4800007
:1016C000B0B9B44808380068C0F3400020B1E06801
:1016D000012801D0012063E7AE480838006820F0F7
:1016E000F800216940EAC100AA490839086037E0DA
:1016F000E06800B30120A8490860FFF731FD054606
:1017000006E0FFF72DFD401B022801D9032047E723
:10171000A04808380068C0F340000028F1D09D4878
:101720000838006820F0F800216940EAC1009949B2
:101730000839086014E0002097490860FFF710FDA1
:10174000054606E0FFF70CFD401B022801D90320E7
:1017500026E7904808380068C0F340000028F1D11F
:10176000207800F0080008282CD16069A8B1012079
:101770008A490860FFF7F4FC054606E0FFF7F0FC35
:10178000401B022801D903200AE782486C30006818
:10179000C0F340000028F1D014E000207F49086029
:1017A000FFF7DEFC054606E0FFF7DAFC401B0228E7
:1017B00001D90320F4E677486C300068C0F340009C
:1017C0000028F1D1207800F00400042870D100270F
:1017D00070483830006800F0805090B900BF002099
:1017E00000906C483830006840F0805069493831CA
:1017F00008600846006800F08050009000BF00BFFD
:1018000001276748006800F48070B0B96448006838
:1018100040F4807062490860FFF7A2FC054606E0CC
:10182000FFF79EFC401B022801D90320B8E65C4864
:10183000006800F480700028F2D000BFA068012882
:1018400008D154486830006840F0010051496831BF
:1018500008601DE0A06805280DD14E48683000687A
:1018600040F004004B49683108600846006840F0C9
:10187000010008600CE047486830006820F0010073
:101880004449683108600846006820F00400086098
:1018900000BFA068A8B1FFF763FC054609E0FFF7A9
:1018A0005FFC401B41F28831884202D9032077E671
:1018B00026E0384868300068C0F340000028EED0C9
:1018C00013E0FFF74DFC054608E0FFF749FC401B1D
:1018D00041F28831884201D9032061E62D48683001
:1018E0000068C0F340000028EFD1012F07D129483C
:1018F0003830006820F0805026493831086000BF39
:10190000A069002845D02348006800F00C00082892
:101910005DD0A069022845D100201F490866FFF765
:101920001FFC054606E0FFF71BFC401B022801D9FF
:10193000032035E6174808380068C0F340600028E7
:10194000F1D1D4E907010843616A40EA811101221B
:10195000A06AC2EB500041EA00412C20005D41EA40
:1019600000600C49091F086001200B490866FFF759
:10197000F7FB054606E0FFF7F3FB401B022801D901
:1019800003200DE6034808380068C0F340600028D3
:10199000F1D049E00838024000004742800E47423B
:1019A00000700040002021490866FFF7D9FB05467A
:1019B00006E0FFF7D5FB401B022801D90320EFE525
:1019C0001B480068C0F340600028F2D12CE0A069F9
:1019D000012800D1E4E51648001D0668A069012829
:1019E00020D006F48001E06981421BD106F03F015E
:1019F000206A814216D147F6C0703040616AB0EB70
:101A0000811F0FD106F440310122A06AC2EB5000C1
:101A1000B1EB004F06D106F070612C20005DB1EBF8
:101A2000006F01D00120BBE50020B9E5000047426E
:101A30000038024070B504462546681EB0F1807F2C
:101A400001D301200FE0681E4FF0E02148610F2113
:101A50004FF0FF3002F01EFB00204FF0E0218861C4
:101A600007200861002070BD10B50346002200BFAA
:101A700093F83C00012801D1022010BD012083F819
:101A80003C0000BF22F0FF00CC6840EA040222F4D0
:101A900040708C6840EA040222F480604C6840EA9E
:101AA000040222F400600C6840EA040222F4805030
:101AB0000C6940EA040222F400504C6940EA040236
:101AC00022F48040CC6940EA04021868426400BFF6
:101AD000002083F83C0000BF00BFCEE730B50246CF
:101AE0000B4600BF92F83C00012801D1022030BD16
:101AF000012082F83C0000BF022082F83D001068FF
:101B000044681068816824F0700418680443106801
:101B10004460184D1068A8421BD01068B0F1804F87
:101B200017D0154D1068A84213D0144D1068A84264
:101B30000FD0134D1068A8420BD0124D1068A84268
:101B400007D0114D1068A84203D0104D1068A8426C
:101B500005D121F08001586801431068816001209F
:101B600082F83D0000BF002082F83C0000BF00BFAB
:101B7000BDE70000000001400004004000080040F4
:101B8000000C0040000401400040014000180040EB
:101B900010B504460CB9012010BD94F83D0028B9D9
:101BA000002084F83C00204600F026F8022084F84B
:101BB0003D00211D206801F0A1F8012084F84600B5
:101BC00000BF84F83E0001213F200155402001550F
:101BD0004120015500BF00BF012084F8420043208E
:101BE0000155442001554520015500BF012084F8CE
:101BF0003D000020D0E7000008B5354A0168914259
:101C00000FD100BF002100913249096841F0010164
:101C1000304A11601146096801F00101009100BFCE
:101C200055E00168B1F1804F11D100BF0021009152
:101C30002849091F096841F00101264A121F116055
:101C40001146096801F00101009100BF3FE0224AFE
:101C50000168914211D100BF002100911D49091F67
:101C6000096841F002011B4A121F11601146096800
:101C700001F00201009100BF29E0184A0168914279
:101C800011D100BF002100911249091F096841F0DC
:101C90000401104A121F11601146096801F0040185
:101CA000009100BF13E00E4A016891420FD100BFBE
:101CB000002100910749096841F48031054A11600B
:101CC0001146096801F48031009100BF00BF08BDD2
:101CD0000000014044380240000400400008004079
:101CE00000400140014691F83D00012801D001204B
:101CF0007047022081F83D000868C06840F001008C
:101D00000B68D8601A4B086898421BD00868B0F17D
:101D1000804F17D0174B0868984213D0164B0868AD
:101D200098420FD0154B086898420BD0144B0868A6
:101D3000984207D0134B0868984203D0124B0868AA
:101D400098420CD10868806800F00702062A0CD07F
:101D50000868006840F001000B68186005E008683A
:101D6000006840F001000B6818600020C0E7000028
:101D7000000001400004004000080040000C00404A
:101D80000004014000400140001800402DE9F041EE
:101D900004460D46002700BF94F83C00012802D1FC
:101DA0000220BDE8F081012084F83C0000BF022041
:101DB00084F83D002068866826F0770626F47F4682
:101DC000206886602868502833D00CDC202850D04A
:101DD00004DC00284BD0102851D149E0302849D0EC
:101DE00040284CD139E060282DD0702807D0B0F5BC
:101DF000805F03D0B0F5005F41D10DE041E0D5E94F
:101E000002136A68206800F0F6FF2068866846F0D2
:101E100077062068866034E0D5E902136A68206896
:101E200000F0E9FF2068806840F480402168886005
:101E300027E0EA686968206801F0EFFF5021206818
:101E400001F0E2FF1DE0EA686968206801F0F8FF30
:101E50006021206801F0D8FF13E0EA686968206813
:101E600001F0DBFF4021206801F0CEFF09E000BF58
:101E700000BF00BF2968206801F0C6FF01E001270C
:101E800000BF00BF012084F83D0000BF002084F89F
:101E90003C0000BF384684E710B586B004461421E4
:101EA00001A8FEF78CFA5749206888421ED100BF6E
:101EB000002000905448006840F01000524908602B
:101EC0000846006800F01000009000BF00BF4FF40B
:101ED00020600190022002900020039004900120D5
:101EE000059001A94948FFF73BF888E02068B0F168
:101EF000804F1DD100BF002000904348006840F093
:101F00000100414908600846006800F001000090A7
:101F100000BF00BF06200190022002900020039025
:101F200004900120059001A93948FFF719F866E0EF
:101F30003849206888421ED100BF002000903248F6
:101F4000006840F00400304908600846006800F06E
:101F50000400009000BF00BF4FF470700190022099
:101F600002900020039004900220059001A92A48C5
:101F7000FEF7F6FF43E02949206888421ED100BFE2
:101F8000002000902048006840F008001E490860CA
:101F90000846006800F00800009000BF00BF4FF442
:101FA00070400190022002900020039004900220D3
:101FB000059001A91A48FEF7D3FF20E019492068CF
:101FC00088421CD100BF002000900F48006840F0FC
:101FD00010000D4908600846006800F010000090ED
:101FE00000BF00BF2020019002200290002003903B
:101FF00004900320059001A90448FEF7B1FF06B044
:1020000010BD0000000001403038024000100240C6
:1020100000000240000400400008024000080040A8
:10202000000C0240004001402DE9F04104460E46FC
:102030001546002700BF94F83C00012802D1022079
:10204000BDE8F081012084F83C0000BF35B1042DCB
:1020500009D0082D0CD00C2D14D10EE0314620688B
:1020600001F034FE10E03146206800F0CFFE0BE0B6
:102070003146206801F062FE06E03146206801F03A
:1020800099FE01E0012700BF00BF00BF002084F8D7
:102090003C0000BF3846D3E710B504460CB9012018
:1020A00010BD94F83D0028B9002084F83C0020467B
:1020B00000F025F8022084F83D00211D206800F082
:1020C0001DFE012084F8460000BF84F83E00012177
:1020D0003F200155402001554120015500BF00BF60
:1020E000012084F842004320015544200155452039
:1020F000015500BF012084F83D000020D0E7704763
:1021000070B504460D460CB9012070BD94F83D0031
:1021100028B9002084F83C00204600F024F8022072
:1021200084F83D00211D206800F0E8FD206800686B
:1021300020F00800216808602068006828432168B2
:102140000860012084F8460084F83E0001213F2009
:102150000155012084F8420043200155012084F8F4
:102160003D000020D1E770472DE9F04104460D46BF
:102170001646002700BF94F83C00012802D1022037
:10218000BDE8F081012084F83C0000BF36B1042E88
:102190001BD0082E31D00C2E5ED145E02946206898
:1021A00001F094FD2068806940F008002168886192
:1021B0002068806920F004002168886120688069B7
:1021C000296908432168886148E02946206800F0B1
:1021D0001DFE2068806940F40060216888612068E5
:1021E000806920F48060216888612068806929699D
:1021F00040EA01202168886130E02946206801F02A
:102200009DFD2068C06940F008002168C861206811
:10221000C06920F004002168C8612068C06929698C
:1022200008432168C86119E02946206801F0C2FD11
:102230002068C06940F400602168C8612068C069F6
:1022400020F480602168C8612068C069296940EA7B
:1022500001202168C86101E0012700BF00BF00BF65
:10226000002084F83C0000BF384689E710B50446DA
:102270000CB9012010BD94F83D0028B9002084F865
:102280003C00204600F025F8022084F83D00211D86
:10229000206800F033FD012084F8460000BF84F878
:1022A0003E0001213F2001554020015541200155AC
:1022B00000BF00BF012084F84200432001554420A4
:1022C00001554520015500BF012084F83D00002044
:1022D000D0E7704770B504460D4615B994F83E0036
:1022E0000BE0042D02D13F20005D06E0082D02D155
:1022F0004020005D01E04120005D012801D0012067
:1023000070BD1DB9022084F83E000EE0042D03D1FB
:1023100002213F20015508E0082D03D10221402071
:10232000015502E002214120015501222946206881
:1023300000F050FD23492068884203D022492068DC
:10234000884201D1012000E0002028B12068406CC3
:1023500040F40040216848641A49206888421BD034
:102360002068B0F1804F17D018492068884213D0F8
:102370001749206888420FD01649206888420BD040
:1023800011492068884207D013492068884203D049
:102390001249206888420CD12068806800F0070646
:1023A000062E0CD02068006840F00100216808600B
:1023B00005E02068006840F0010021680860002006
:1023C0009EE70000000001400004014000040040BE
:1023D00000080040000C0040004001400018004090
:1023E00010B504460CB9012010BDA06900B100E091
:1023F00000BF94F83D0028B9002084F83C00204636
:1024000000F028F8242084F83D002068C06820F4FB
:1024100000502168C860204601F026FD2068006950
:1024200020F49040216808612068406920F02A006B
:10243000216848612068C06840F400502168C86085
:1024400000202064202084F83D0084F83E00002015
:10245000CAE7000010B586B00446142101A8FDF7B4
:10246000AEFF1B492068884230D100BF0020009099
:102470001848006840F010001649086008460068D7
:1024800000F01000009000BF00BF00BF00200090CF
:1024900010481438006840F001000E4914390860F3
:1024A0000846006800F00100009000BF00BF4FF434
:1024B000C06001900220029000200390032004904D
:1024C0000720059001A90448FEF74AFD06B010BD9B
:1024D00000100140443802400000024000BFFEE707
:1024E0001FB50020009001900290039026482749D4
:1024F00008604FF480304860002124488160012149
:1025000001610176002180F82010C16220498162BA
:102510000021C1600421C161012180F830104161B6
:10252000FEF79CF808B1FDF7CCFF062000900120D3
:1025300001900020029069461448FDF7C5FF08B1DC
:10254000FDF7BFFF072000900220019069460F4869
:10255000FDF7BAFF08B1FDF7B4FF0A200090032091
:10256000019069460948FDF7AFFF08B1FDF7A9FFE3
:102570000B2000900420019069460448FDF7A4FF59
:1025800008B1FDF79EFF1FBD00200140DC060020C2
:102590000100000F10B50B480B490860102048607F
:1025A000002109488160C160016141610176417685
:1025B0008176C17601774177FEF7E0F908B1FDF742
:1025C00080FF10BD006400408407002008B500BFF4
:1025D000002000900A48006840F480000849086024
:1025E0000846006800F48000009000BF00BF002291
:1025F00011463820FEF73EFE3820FEF72BFE08BDC0
:102600003038024000B587B0142102A8FDF7D7FE8C
:1026100000BF00200190A348006840F01000A149CD
:1026200008600846006800F01000019000BF00BF7D
:1026300000BF002001900846006840F020000860BC
:102640000846006800F02000019000BF00BF00BFF6
:10265000002001900846006840F0800008600846AD
:10266000006800F08000019000BF00BF00BF0020A4
:1026700001900846006840F00400086008460068C1
:1026800000F00400019000BF00BF00BF00200190D7
:102690000846006840F0010008600846006800F045
:1026A0000100019000BF00BF00BF0020019008465C
:1026B000006840F0020008600846006800F0020070
:1026C000019000BF00BF00BF0020019008460068D5
:1026D00040F0080008600846006800F0080001901B
:1026E00000BF00BF002230216F48FEF733FD0022FB
:1026F0000C216E48FEF72EFD002218216C48FEF7D3
:1027000029FD00224FF482416A48FEF723FD002292
:102710004FF440516848FEF71DFD00224FF4206140
:102720006648FEF717FD302002900120039000203C
:102730000490059002A95C48FEF712FCC0200290AC
:102740004FF4881003900220049002A95648FEF727
:1027500007FC4FF48070029000200390049002A9BF
:102760005148FEF7FDFB0C20029001200390002051
:102770000490059002A94D48FEF7F2FB1820029044
:102780000120039000200490059002A94848FEF71C
:10279000E7FB20200290002003900120049002A972
:1027A0004348FEF7DDFB102002904FF488100390A1
:1027B0000220049002A93D48FEF7D2FB202002909F
:1027C000002003900120049002A93848FEF7C8FBBE
:1027D000042002904FF4881003900220049002A974
:1027E0003548FEF7BDFB4FF40060029000200390D7
:1027F0000120049002A92C48FEF7B2FB8020029031
:10280000002003900120049002A92A48FEF7A8FBAB
:102810004FF4824002900120039000200490059024
:1028200002A92448FEF79CFB4FF4004002904FF4AD
:10283000881003900220049002A91E48FEF790FB26
:102840004FF4405002900120039000200490059026
:1028500002A91948FEF784FB4FF480700290002013
:1028600003900120049002A91448FEF779FB4FF46D
:10287000206002900120039000200490059002A99E
:102880000E48FEF76DFB4FF4806002904FF4881005
:1028900003900220049002A90848FEF761FB07B0EC
:1028A00000BD000030380240001402400008024021
:1028B000000002400010024000040240000C0240F0
:1028C00000B595B0002011901290139014900F90C5
:1028D00010901C2108A8FDF772FD20216846FDF725
:1028E0006EFD2F482F49086040F2473048600021B4
:1028F0002C48816040F2CF71C160002101614161CB
:102900008161FFF745F908B1FDF7DBFD4FF4805019
:10291000119011A92348FFF739FA08B1FDF7D1FD4D
:102920002048FFF7B9FB08B1FDF7CBFD00200F9061
:1029300010900FA91B48FFF7D1F808B1FDF7C1FDB2
:102940000020089009900A900B900C900D900E902A
:10295000002208A91348FFF767FB08B1FDF7B1FD96
:10296000042208A90F48FFF75FFB08B1FDF7A9FD96
:102970000020009001900290039004904FF40050CA
:1029800005900020079069460648FFF76DF808B1EA
:10299000FDF797FD0348FFF77FFA15B000BD000073
:1029A00000000140AC07002000B58DB00020099068
:1029B0000A900B900C90079008901C216846FDF738
:1029C000FEFC4FF0804023490860D1204860002180
:1029D0002048816040F2E731C160002101618161DE
:1029E000FFF7D6F808B1FDF76CFD4FF48050099061
:1029F00009A91848FFF7CAF908B1FDF762FD1548A3
:102A0000FFF734FC08B1FDF75CFD0020079008904B
:102A100007A91048FFF762F808B1FDF752FD6020E2
:102A20000090002001900290049004226946094819
:102A3000FFF79AFB08B1FDF744FD082269460548F7
:102A4000FFF792FB08B1FDF73CFD0248FFF724FABF
:102A50000DB000BDF407002000B58DB00020099036
:102A60000A900B900C90079008901C216846FDF787
:102A7000A6FC2C482C49086040F2473048600021F1
:102A80002948816040F2CF71C160002101618161FC
:102A9000FFF77EF808B1FDF714FD4FF48050099060
:102AA00009A92148FFF772F908B1FDF70AFD1E4890
:102AB000FFF7DCFB08B1FDF704FD0020079008904C
:102AC00007A91948FFF70AF808B1FDF7FAFC6020DA
:102AD0000090002001900290049000226946124864
:102AE000FFF742FB08B1FDF7ECFC042269460E48F3
:102AF000FFF73AFB08B1FDF7E4FC082269460A48F3
:102B0000FFF732FB08B1FDF7DCFC0C2269460648F2
:102B1000FFF72AFB08B1FDF7D4FC0348FFF7BCF927
:102B20000DB000BD000400403C08002000B58DB091
:102B3000002009900A900B900C90079008901C219F
:102B40006846FDF73CFC2C482C490860D1204860C1
:102B500000212A48816040F2E731C1600021016113
:102B60008161FFF715F808B1FDF7ABFC4FF4805019
:102B7000099009A92148FFF709F908B1FDF7A1FC5F
:102B80001E48FFF773FB08B1FDF79BFC0020079080
:102B9000089007A91948FEF7A1FF08B1FDF791FCBD
:102BA000602000900020019002900490002269466D
:102BB0001248FFF7D9FA08B1FDF783FC04226946F1
:102BC0000E48FFF7D1FA08B1FDF77BFC08226946F1
:102BD0000A48FFF7C9FA08B1FDF773FC0C226946F1
:102BE0000648FFF7C1FA08B1FDF76BFC0348FFF791
:102BF00053F90DB000BD000000080040840800201B
:102C000000B58BB000200790089009900A901C2115
:102C10006846FDF7D4FB1F481F49086053204860F1
:102C200000211D48816040F2F311C1600021016163
:102C30008161FEF7ADFF08B1FDF743FC4FF4805012
:102C4000079007A91448FFF7A1F808B1FDF739FC70
:102C50001148FFF70BFB08B1FDF733FC08210E48C4
:102C6000FFF74EFA08B1FDF72CFC60200090002021
:102C7000019002200290002004900022694606483C
:102C8000FFF772FA08B1FDF71CFC0348FFF704F9DF
:102C90000BB000BD00400140CC08002010B50B482F
:102CA0000B4908604FF4E13048600021084881601A
:102CB000C16001610C21416100218161C161FFF7A7
:102CC0008FFB08B1FDF7FDFB10BD000000100140B7
:102CD0001409002000BFFEE700BFFEE77047704701
:102CE00010B5FEF743FA10BD0348006840F47000C9
:102CF000014908607047000088ED00E010B50268E7
:102D0000294B98420ED0B0F1804F0BD0274B984200
:102D100008D0274B984205D0264B984202D0264B2C
:102D2000984203D122F070024B681A431E4B98421E
:102D300020D0B0F1804F1DD01C4B98421AD01C4BB4
:102D4000984217D01B4B984214D01B4B984211D07D
:102D50001A4B98420ED01A4B98420BD0194B9842FE
:102D600008D0194B984205D0184B984202D0184B06
:102D7000984203D122F44072CB681A4322F08003B8
:102D80004C6943EA040202608B68C3620B68836289
:102D9000054B984202D0084B984201D10B6903635E
:102DA0000123436110BD0000000001400004004009
:102DB00000080040000C00400004014000400140B9
:102DC000004401400048014000180040001C004041
:102DD0000020004030B501F01F05012404FA05F37E
:102DE000046A9C430462046A01F01F0502FA05F5B7
:102DF0002C43046230BD30B50C46816821F47F411C
:102E000042EA032525432943816030BD30B5056A78
:102E100025F010050562026A4368846924F4E044E1
:102E200024F440740D6844EA052422F020028D68E1
:102E300042EA0512124DA84200D103E0114DA8420A
:102E400007D100BF22F08002CD6842EA051222F0CD
:102E500040020B4DA84202D00A4DA84209D123F4EA
:102E6000806323F400634D6943EA85038D6943EA77
:102E70008503436084614D688563026230BD000054
:102E8000000001400004014000BFFEE700B593B020
:102E9000302107A8FDF793FA142102A8FDF78FFA55
:102EA00000BF002001902448006840F08050224973
:102EB00008600846006800F08050019000BF00BF25
:102EC00000BF002001901D48006840F480401B496D
:102ED00008600846006800F48040019000BF00BF11
:102EE000012007900004089002200D9041050E91EA
:102EF00004210F91A8211091022111910421129116
:102F000007A8FEF749FB08B1FDF7DBFA0F20029096
:102F100002200390002004904FF4A05005904FF43D
:102F200080500690052102A8FEF7F6F908B1FDF7DA
:102F3000C8FA13B000BD00004038024000700040E5
:102F4000014691F85800704780F85810704710B546
:102F50000446606E60B9B4F84A100022E06CFEF7D7
:102F6000F9F8B4F850100022606DFEF7F3F81EE097
:102F7000606E00280CDDB4F84A100122E06CFEF708
:102F8000E9F8B4F850100022606DFEF7E3F80EE0A7
:102F9000606E00280BDAB4F84A100022E06CFEF7ED
:102FA000D9F8B4F850100122606DFEF7D3F894F808
:102FB000480028B9606E01F0BEFB2168486318E044
:102FC00094F84800042805D1606E01F0B4FB216834
:102FD00088630EE094F84800082805D1606E01F07F
:102FE000AAFB2168C86304E0606E01F0A4FB2168BD
:102FF000086410BD11B52DED040B00F5D0619DE8FE
:103000001C0034311CC105B010BD70B504460E461D
:1030100084F8B066002509E005EB051101EB4511C8
:1030200004EBC100314600F066FB6D1C042DF3DBA0
:1030300070BD000070B52DED028B0446F7EE000A5E
:10304000BFEE000A04F2B46001F04AFBF7EE000A9A
:10305000BFEE000A04F5D76001F042FBF0EE000A73
:10306000B8EE000A04F2BC6001F03AFB04F580609F
:1030700090EDAD0A04F2B460D0ED020A9FED541A4F
:1030800001EE200AD0ED010A30EE600ADFED510AB0
:10309000C0EE208A2046FFF753FF08B9012001E067
:1030A0004FF0FF3000EE100AB8EEC00A28EE808A1A
:1030B000B0EE480A204600F01BFB04F5806090ED5E
:1030C000AD0A04F2B460D0ED020A9FED411A11EE90
:1030D000200AD0ED010A30EE600ADFED3E0AC0EEB4
:1030E000208A04F5C470FFF72BFF08B9012001E026
:1030F0004FF0FF3000EE100AB8EEC00A28EE808ACA
:10310000B0EE480A04F5C47000F0F2FA04F58060ED
:1031100090EDAD0A04F2B460D0ED020A9FED2E1AD4
:1031200001EE200AD0ED010A30EE600ADFED290A37
:10313000C0EE208A04F54470FFF702FF08B90120B1
:1031400001E04FF0FF3000EE100AB8EEC00A28EEA2
:10315000808AB0EE480A04F5447000F0C9FA04F51C
:10316000806090EDAD0A04F2B460D0ED020A9FEDEC
:103170001A1A11EE200AD0ED010A30EE600ADFEDD6
:10318000150AC0EE208A04F59360FFF7D9FE08B94E
:10319000012001E04FF0FF3000EE100AB8EEC00A47
:1031A00028EE808AB0EE480A04F5936000F0A0FA99
:1031B000002508E005EB051101EB451104EBC1000A
:1031C00000F09CFA6D1C042DF4DBBDEC028B70BD8D
:1031D000CBA1C5BE4A0C823DCBA1C53E0FB430B5D4
:1031E000CFB004463D2253A904F5C460FDF7B5F8FD
:1031F0009DF8891184F85D169DF88A1184F85E1691
:103200009DF88B1184F85F169DF88C1184F8601678
:103210009DF88D1184F861169DF88E1184F8621660
:103220009DF88F1184F863169DF8901184F8641648
:103230009DF8911184F865169DF8921184F8661630
:103240003D2265A904F5CD60FDF787F89DF8D11101
:1032500084F8A5169DF8D21184F8A6169DF8D3110E
:1032600084F8A7169DF8D41184F8A8169DF8D511F6
:1032700084F8A9169DF8D61184F8AA169DF8D711DE
:1032800084F8AB169DF8D81184F8AC169DF8D911C6
:1032900084F8AD169DF8DA1184F8AE163D2265A9C2
:1032A0003DA8FDF75AF89DF8D1018DF831019DF840
:1032B000D2018DF832019DF8D3118DF833119DF8AC
:1032C000D4118DF834119DF8D5118DF835119DF874
:1032D000D6018DF836019DF8D7118DF837119DF87C
:1032E000D8118DF838119DF8D9118DF839119DF844
:1032F000DA018DF83A013D2253A92BA8FDF72DF8EC
:103300009DF889018DF8E9009DF88A018DF8EA00A1
:103310009DF88B118DF8EB109DF88C118DF8EC1049
:103320009DF88D118DF8ED109DF88E018DF8EE0051
:103330009DF88F118DF8EF109DF890118DF8F01019
:103340009DF891118DF8F1109DF892018DF8F20021
:10335000E048C1148023CDE926304822CDE9281069
:103360003DA914A8FCF7F9FFDB488114D94A2023B2
:10337000CDE91032CDE9121000203C222EA90F9089
:103380006846FCF7EAFF20462BA90EC900F056FA62
:1033900000212046FFF7D8FD3D2265A93DA8FCF796
:1033A000DCFF9DF8D1018DF831019DF8D2018DF837
:1033B00032019DF8D3118DF833119DF8D4118DF899
:1033C00034119DF8D5118DF835119DF8D6018DF881
:1033D00036019DF8D7118DF837119DF8D8118DF869
:1033E00038119DF8D9118DF839119DF8DA018DF851
:1033F0003A013D2253A92BA8FCF7AFFF9DF88901A4
:103400008DF8E9009DF88A018DF8EA009DF88B118E
:103410008DF8EB109DF88C118DF8EC109DF88D1146
:103420008DF8ED109DF88E018DF8EE009DF88F114E
:103430008DF8EF109DF890118DF8F0109DF8911116
:103440008DF8F1109DF892018DF8F200A1488115D8
:103450004023CDE926304822CDE928103DA914A803
:10346000FCF77BFF9C484FF400519C4AC314CDE904
:103470001032CDE9121004203C222EA90F9068468C
:10348000FCF76BFF04F5C4702BA90EC900F0D6F948
:10349000002104F5C470FFF757FD3D2265A93DA842
:1034A000FCF75BFF9DF8D1018DF831019DF8D20149
:1034B0008DF832019DF8D3118DF833119DF8D41198
:1034C0008DF834119DF8D5118DF835119DF8D60180
:1034D0008DF836019DF8D7118DF837119DF8D81168
:1034E0008DF838119DF8D9118DF839119DF8DA0150
:1034F0008DF83A013D2253A92BA8FCF72EFF9DF829
:1035000089018DF8E9009DF88A018DF8EA009DF89F
:103510008B118DF8EB109DF88C118DF8EC109DF847
:103520008D118DF8ED109DF88E018DF8EE009DF84F
:103530008F118DF8EF109DF890118DF8F0109DF817
:1035400091118DF8F1109DF892018DF8F200634809
:1035500081150315CDE926304822CDE928103DA973
:1035600014A8FCF7FAFE5B4810215C4A4315CDE92C
:103570001032CDE9121008203C222EA90F90684687
:10358000FCF7EBFE04F544702BA90EC900F056F9C8
:10359000002104F54470FFF7D7FC3D2265A93DA842
:1035A000FCF7DBFE9DF8D1018DF831019DF8D201C9
:1035B0008DF832019DF8D3118DF833119DF8D41197
:1035C0008DF834119DF8D5118DF835119DF8D6017F
:1035D0008DF836019DF8D7118DF837119DF8D81167
:1035E0008DF838119DF8D9118DF839119DF8DA014F
:1035F0008DF83A013D2253A92BA8FCF7AEFE9DF8A9
:1036000089018DF8E9009DF88A018DF8EA009DF89E
:103610008B118DF8EB109DF88C118DF8EC109DF846
:103620008D118DF8ED109DF88E018DF8EE009DF84E
:103630008F118DF8EF109DF890118DF8F0109DF816
:1036400091118DF8F1109DF892018DF8F200244847
:1036500080210B02CDE926304822CDE928103DA972
:1036600014A8FCF77AFE1E484FF480418315CDE97B
:103670001030CDE912100C203C222EA90F90684684
:10368000FCF76BFE04F593602BA90EC900F0D6F889
:10369000002104F59360FFF757FC002514E005EBCB
:1036A000051101EB451104EBC10101F168009FED2B
:1036B0000D2ADFED0C1AB3EE091ADFED0B0A9FEDB0
:1036C0000B0A00F017FE6D1C042DE8DB4FB030BC78
:1036D0005DF814FB0014024000040240000C02409C
:1036E000001002400000804F00803B450000FA447B
:1036F00080ED5F0A704780F86811704710B52DEDB6
:10370000028B044604F5B474D4E90101401A08EEB2
:10371000100A94ED030AF8EEC80A80EE801A94EDC0
:10372000060A31EE000A84ED060A94ED030AB8EEAB
:10373000C81AC1EE000A9FED400A80EE801A84ED9F
:10374000041A6068A0602078A4F5B47480B9D4ED40
:103750005F0A94ED180AB8EEC00A20EE800AD4ED94
:10376000170A80EE201ABDEEC10A84ED190A56E050
:1037700094F8680101281CD1D4ED5E0AB0EE600A0D
:1037800004F1680000F0C4FDD4ED5F0AB0EE600AF9
:1037900004F1680000F09AFC04F1680000F09AFC63
:1037A00004F1680000F0B1FDBDEEC00A84ED190A15
:1037B00035E094F86801022831D1D4ED610AB0EE09
:1037C000600A04F1BC0000F081FCD4ED600AB0EEA8
:1037D000600A04F1BC0000F09BFD04F1BC0000F0A5
:1037E00079FC04F1BC0000F090FDF0EE408A04F199
:1037F000680000F06BFCD4ED5E0AB0EE600A04F1E4
:10380000680000F085FD04F1680000F063FC04F13D
:10381000680000F07AFDBDEEC00A84ED190A40F29E
:10382000E732514204F1640000F06EFF2046FFF7DA
:103830008EFBBDEC028B10BDCDCC4C3D0FB42DE901
:10384000F05F0446DDE934AB1DAD95E8E0033D22B1
:103850000BA92046FCF781FD9DF8690084F83D0026
:103860009DF86A0084F83E009DF86B103F200155DA
:103870009DF86C10402001559DF86D1041200155B8
:103880009DF86E0084F842009DF86F1043200155AA
:103890009DF87010442001559DF871104520015588
:1038A0009DF8720084F8460084F84850A4F84A60F5
:1038B000E764A4F85080C4F854903D2222A904F58E
:1038C0008870FCF74AFD9DF8C51084F84D119DF8ED
:1038D000C61084F84E119DF8C71084F84F119DF85A
:1038E000C81084F850119DF8C91084F851119DF842
:1038F000CA1084F852119DF8CB1084F853119DF82A
:10390000CC1084F854119DF8CD1084F855119DF811
:10391000CE1084F85611A4F858A1C4F85CB13698BA
:10392000A4F860013798C4F8640129460BA8FEF793
:10393000D1FCBDE8F01F5DF814FB000010B5044693
:10394000002184F858109FED190A84ED170A40F2FF
:10395000E7312166002104F16800616600F0DCFCBB
:10396000A0F16804543000F0D7FCA0F1BC040120A1
:1039700084F868010020C4F86C019FED0D0AC4F8BA
:10398000700184ED5D0A9FED0B0A84ED5E0A9FEDE8
:10399000090A84ED5F0A9FED070A84ED600A9FED36
:1039A000050A84ED610A204610BD0000B5220842D8
:1039B00027745F420000000070B50546AC6B4020E4
:1039C0002064606C40F0040060642046FCF744FE14
:1039D00070BD70B50546AC6B206C00F0500050BB5C
:1039E000206C40F4007020642068806800F0405033
:1039F000E8B9207ED8B92068C06A00F4700020B110
:103A00002068806800F4806088B92068406820F0F1
:103A1000200021684860206C20F480702064206CB5
:103A200000F4805018B9206C40F00100206420465A
:103A3000FCF710FE0BE0206C00F0100018B12046DF
:103A4000FCF70AFE03E0A06BC16C2846884770BDF6
:103A500070B50446A56B2846FCF7FDFD70BD00005F
:103A600055494A6822F440324A604A6843681A431A
:103A70004A600268526822F4807203685A600268E1
:103A80005368026943EA022203685A600268526876
:103A900022F0407203685A600268526883681A43D1
:103AA00003685A600268926822F4006203689A60B0
:103AB00002689268C3681A4303689A603F4B826A3F
:103AC0009A4218D00268926822F0706203689A6085
:103AD00002689268836A1A4303689A60026892686F
:103AE00022F0405203689A6002689268C36A1A43DF
:103AF00003689A600BE00268926822F070620368C3
:103B00009A600268926822F0405203689A600268E4
:103B1000926822F0020203689A6002689368027E4B
:103B200043EA420203689A602022125CA2B1026852
:103B3000526842F4006203685A600268526822F4D4
:103B4000604203685A6002685368426A521E43EA40
:103B5000423203685A6005E00268526822F400624B
:103B600003685A600268D26A22F470020368DA625B
:103B70000268D36A828B521E43EA02520368DA62F9
:103B80000268926822F4007203689A60026893687F
:103B900090F8302043EA422203689A6002689268F3
:103BA00022F4806203689A6002689368426943EA7B
:103BB000822203689A607047002301400100000FD1
:103BC00030B50468246824F4802405682C600468F7
:103BD00063608468402C04D10468A2600468E160DA
:103BE00003E00468A1600468E26030BD0146002083
:103BF0008A6A8B69CBB932B1012A0DD0022A03D06F
:103C0000032A10D10EE000BFCB6A03F08073B3F13A
:103C1000807F00D1012007E0CB6AB3F1C07F00D1E3
:103C2000012001E000E000BF34E08B69B3F5005FE4
:103C30001AD132B1012A07D0022A03D0032A11D1A6
:103C40000AE000BF01200EE0CB6A03F08073B3F1FD
:103C5000807F00D1012006E0CB6AB3F1C07F00D1A4
:103C6000012000E000BF15E032B1012A05D0022A90
:103C700004D0032A0CD103E000BF00BF012008E0FC
:103C8000CB6A03F08073B3F1807F00D1012000E0A4
:103C900000BF00BF704700000146087810381823A5
:103CA000B0FBF3F20848805CC865032A05D90868B0
:103CB0006FF30900001D886503E008686FF30900D1
:103CC0008865886D70470000A447000830B5056A14
:103CD00025F001050562026A4368846924F07004D6
:103CE00024F003040D682C4322F002028D682A435D
:103CF000104DA84200D103E00F4DA84206D100BFED
:103D000022F00802CD682A4322F00402094DA8429D
:103D100002D0094DA84207D123F4807323F4007325
:103D20004D692B438D692B43436084614D68456326
:103D3000026230BD000001400004014030B5056A58
:103D400025F480750562026A4368C46924F0700432
:103D500024F003040D682C4322F400728D6842EABB
:103D60000522124DA84200D103E0114DA84207D10F
:103D700000BF22F40062CD6842EA052222F480628C
:103D80000A4DA84202D00A4DA84209D123F480531B
:103D900023F400534D6943EA05138D6943EA051383
:103DA0004360C4614D68C563026230BD00000140DC
:103DB0000004014030B5056A25F480550562036AA8
:103DC0004468C26922F4E04222F440720D6842EA7B
:103DD000052223F400538D6843EA0533084DA842B9
:103DE00002D0084DA84204D124F480444D6944EA2D
:103DF00085144460C2614D680564036230BD0000F3
:103E000000000140000401400A46816821F0700171
:103E100042F0070319438160704730B50B461446E2
:103E2000026A056A25F001050562816921F0F00149
:103E300041EA041122F00A021A438161026230BD94
:103E400030B50B461446056A25F0100505628169F8
:103E5000026A21F4704141EA043122F0A00242EAF0
:103E600003128161026230BD2DE9F84F04462068DB
:103E7000006920F44050E168084321680861216925
:103E8000A068084361690843E1690843009020681D
:103E9000C06849F20C618843009908432168C860F2
:103EA0002068406920F44070A16908432168486196
:103EB00076492068884203D075492068884203D13A
:103EC000FDF702FB814602E0FDF7EEFA8146E0696C
:103ED000B0F5004F6CD102206168A0FB0150034691
:103EE0001920A9FB007001462A463846FCF7BEF9A6
:103EF0006421B0FBF1F04FEA001A02206168A0FBD8
:103F000001510B461920A9FB00712A463846FCF7DF
:103F1000ADF9834602206168A0FB015003461920D9
:103F2000A9FB00712A463846FCF7A0F96421B0FBD2
:103F3000F1F000EBC00101EB0010ABEB800032218F
:103F400001EBC0006421B0FBF1F000F0F8000AEBD7
:103F5000400A02206168A0FB015003461920A9FB1A
:103F6000007001462A463846FCF780F98346022055
:103F70006168A0FB015003461920A9FB00712A4685
:103F80003846FCF773F96421B0FBF1F000EBC00197
:103F900001EB0010ABEB8000322101EBC00064218B
:103FA000B0FBF1F000F007005044216888606AE03F
:103FB00004206168A0FB015003461920A9FB007092
:103FC00001462A463846FCF751F9824604206168CA
:103FD000A0FB015003461920A9FB007001462A46A8
:103FE0003846FCF743F96421B0FBF1F000EBC00167
:103FF00001EB0010AAEB8000322101EB00106421DC
:10400000B0FBF1F000F0F00A04206168A0FB017041
:1040100003461920A9FB00513A462846FCF726F929
:104020006421B0FBF1F00AEB001A04206168A0FBE8
:1040300001510B461920A9FB00712A463846FCF7AE
:1040400015F9834604206168A0FB0150034619203E
:10405000A9FB007001462A463846FCF707F964219F
:10406000B0FBF1F000EBC00101EB0010ABEB800006
:10407000322101EB00106421B0FBF1F000F00F00E1
:10408000504421688860BDE8F88F000000100140AE
:104090000014014010B5002804DB0A07130E054A7E
:1040A000135406E00A07140E034A00F00F031B1F07
:1040B000D45410BD00E400E018ED00E002480068B0
:1040C000C0F30220704700000CED00E080ED060A0E
:1040D0007047000010B52DED048B044694ED060AE0
:1040E000D4ED070A30EE600A84ED080AD4ED080A20
:1040F000B0EE600A00F012FBB0EE408A94ED100AB8
:10410000B4EEC80AF1EE10FA06DD9FED790A84EDEF
:10411000090ABDEC048B10BD94ED010AD4ED080A28
:1041200020EE200A84ED0D0A94ED110AB5EEC00AC6
:10413000F1EE10FA09D194ED110AB5EEC00AF1EED4
:1041400010FA02D1F7EE008A39E094ED120AB4EECB
:10415000C80AF1EE10FA02DDF7EE008A24E094EDD1
:10416000110AD4ED120A70EE200A94ED120AB4EE90
:10417000C80AF1EE10FA01D8012000E0002000EE9C
:10418000100AB8EEC00AF4EEC00AF1EE10FA0BDD28
:1041900094ED110AD4ED120A30EE200A30EE480AEE
:1041A000D4ED110AC0EE208A94ED120AB4EEC80ACA
:1041B000F1EE10FA03D89FED4E0AF0EE408A94ED2E
:1041C0000B0AD4ED000A60EEA80A94ED081A00EE7E
:1041D000810A84ED0B0A94ED040AB5EEC00AF1EEF3
:1041E00010FA19D094ED040AD4ED020A80EE201AD8
:1041F000B0EE419A94ED040AB1EE400AD4ED020A01
:1042000080EE201AF0EE419AF0EE490AB0EE690A0B
:1042100004F12C0000F064FA94ED130AB5EEC00A24
:10422000F1EE10FA08D194ED020AD4ED0B0A20EE5B
:10423000200A84ED0E0A13E094ED130AB4EEC80AC6
:10424000F1EE10FA08DD94ED020AD4ED0B0A20EE2F
:10425000200A84ED0E0A03E09FED250A84ED0E0A84
:1042600094F8500001280CD194ED070AD4ED0A0A05
:1042700030EE600AD4ED030A20EE200A84ED0F0A26
:104280000BE094ED080AD4ED0C0A30EE600AD4ED90
:10429000030A20EE200A84ED0F0A94ED080A84ED4B
:1042A0000C0A94ED070A84ED0A0A94ED0D0AD4ED88
:1042B0000E0A30EE200AD4ED0F0A30EE200A84ED0B
:1042C000090A94ED050AB5EEC00AF1EE10FA0DD018
:1042D00094ED051AF0EE410A94ED051AB1EE411A7B
:1042E000B0EE410A04F1240000F0FAF900BF10E733
:1042F0000000000080ED010AC0ED020A80ED031A03
:10430000C0ED041A80ED052A704790ED090A704748
:1043100080ED070A704700009FED190A80ED000A42
:104320009FED180A80ED060A9FED160A80ED070A38
:104330009FED140A80ED080A9FED120A80ED090A2C
:104340009FED100A80ED0D0A9FED0E0A80ED0E0A1A
:104350009FED0C0A80ED0F0A9FED0A0A80ED100A0E
:104360009FED080A80ED110A9FED060A80ED120A02
:104370009FED040A80ED130A002180F85010704769
:10438000CDCCCC3D000000002DE9F0411C46174685
:104390000E00804607D0054602E02846B0473D445F
:1043A0002046641EF9D24046BDE8F08110B5094CA4
:1043B00004234FF4C47208492046FFF7E5FF044682
:1043C000012084F8B00604F5D060044B0ECB3430E5
:1043D0000EC010BD1C0000203D39000898470008A1
:1043E000DAB0FCF7CFFEFEF751FDFEF70BF9FEF752
:1043F000EDF8FEF7D9FAFEF72FFBFEF797FBFEF775
:104400005FFAFEF7FDFBFEF749FCFEF7C3F8FEF787
:1044100067F83D22AB4933A8FBF79FFFA94890F806
:104420003D008DF80901A74890F83E008DF80A017B
:10443000A44890F83F108DF80B1190F840108DF8BB
:104440000C1190F841108DF80D1190F842008DF884
:104450000E019C4890F843108DF80F1190F844100D
:104460008DF8101190F845108DF8111190F8460054
:104470008DF812013D22944921A8FBF76EFF924866
:1044800090F83D008DF8C1008F4890F83E008DF8FF
:10449000C2008D4890F83F108DF8C31090F840107E
:1044A0008DF8C41090F841108DF8C51090F84200B6
:1044B0008DF8C600844890F843108DF8C71090F826
:1044C00044108DF8C81090F845108DF8C91090F878
:1044D00046008DF8CA00482233A90FA8FBF73DFF1C
:1044E0003C2224A96846FBF738FF784821A90EC969
:1044F000FEF774FE00217548FEF787FD7148FDF751
:10450000F1FB042272497348FCF75EF9724A07CA4C
:1045100057AB07C3704A0C3207CA54AB07C36E4A85
:104520001832D2E9001092685392519152906A4A1F
:10453000243207CA4EAB07C3674A3032D2E90010B3
:1045400092684D924B914C90634A3C32D2E90010F4
:1045500092684A9248914990002045904690479031
:104560009DED471ADDED460A9DED450A5748FEF7D9
:1045700041FD4FF47A70FCF7DFFCA2E0544800885C
:10458000B0F5C87F03DA00205449087007E05048AE
:104590000088B0F5167F02DD0120504908704C48B4
:1045A0004088B0F5C87F03DA00204C49487007E026
:1045B00047484088B0F5167F02DD01204749487022
:1045C00043488088B0F5C87F03DA002043498870EB
:1045D00007E03F488088B0F5167F02DD01203F49A3
:1045E00088703B48C088B0F5C87F03DA00203B499B
:1045F000C87007E03648C088B0F5167F02DD01209C
:104600003649C87035480078B8B934484078012830
:1046100013D13248807801280FD13048C07860B972
:104620009DED591ADDED580A9DED570A2748FEF712
:10463000E1FC2648FEF7FEFC43E02848007801280C
:1046400027D126484078012823D1244880780128A2
:104650001FD12248C078E0B99DED4D1ADDED4C0A1E
:104660009DED4B0A1948FEF7C5FC1848FEF7E2FC21
:104670004CF25030FCF760FC9DED501ADDED4F0A16
:104680009DED4E0A1148FEF7B5FC1048FEF7D2FC2E
:1046900017E012480078A0B91048407888B90F4850
:1046A000807870B90D48C07858B99DED471ADDED96
:1046B000460A9DED450A0548FEF79CFC0348FEF7B7
:1046C000B9FC5BE7F4070020840800201C000020F0
:1046D00000000020DC0600205047000808000020F1
:1046E00090ED001AB4EEC01AF1EE10FA02D280ED8D
:1046F000000A08E090ED001AB4EEE01AF1EE10FAAC
:1047000001DDC0ED000A704703688B4201DA0160E9
:1047100003E00368934200DD02607047F0EE400A58
:10472000F5EEC00AF1EE10FA02DDB0EE600A704755
:10473000B1EE600AFBE70146002901DD084670473B
:104740004842FCE74FF04070E1EE100A704700006D
:10475000000000009A99993E00000000000000004F
:104760009A9999BE000000009A99993E00000000B5
:10477000000000009A9999BE0000000000000000AF
:1047800000000000000000009A99193F000000009E
:10479000000000009A9919BF00000000000000000E
:1047A00000000000000610160006101600000000B1
:1047B00000000000010203040607080900000000D1
:1047C00001020304E8470008000000201C0000006C
:1047D000C4010008044800081C0000209C0F0000D1
:1047E000E0010008C9FBFFFF00000000000000001E
:1047F00000000000000000001000000001000000A8
:044800000024F4009C
:040000050800018965
:00000001FF
